{"project/contracts/MerkleCredentialVerifier.sol":{"CredentialVerifier":{"abi":[{"inputs":[{"internalType":"address","name":"_universityAddress","type":"address"}],"stateMutability":"nonpayable","type":"constructor"},{"anonymous":false,"inputs":[{"indexed":true,"internalType":"string","name":"batchId","type":"string"},{"indexed":true,"internalType":"bytes32","name":"merkleRoot","type":"bytes32"},{"indexed":false,"internalType":"uint256","name":"credentialCount","type":"uint256"},{"indexed":false,"internalType":"address","name":"committedBy","type":"address"},{"indexed":false,"internalType":"uint256","name":"committedAt","type":"uint256"}],"name":"BatchCommitted","type":"event"},{"anonymous":false,"inputs":[{"indexed":true,"internalType":"string","name":"batchId","type":"string"},{"indexed":false,"internalType":"address","name":"revokedBy","type":"address"}],"name":"BatchRevoked","type":"event"},{"anonymous":false,"inputs":[{"indexed":true,"internalType":"bytes32","name":"credentialHash","type":"bytes32"},{"indexed":true,"internalType":"string","name":"batchId","type":"string"},{"indexed":false,"internalType":"address","name":"revokedBy","type":"address"}],"name":"CredentialRevoked","type":"event"},{"inputs":[{"internalType":"string","name":"","type":"string"}],"name":"batchRoots","outputs":[{"internalType":"bytes32","name":"","type":"bytes32"}],"stateMutability":"view","type":"function"},{"inputs":[{"internalType":"string","name":"","type":"string"}],"name":"batches","outputs":[{"internalType":"bytes32","name":"merkleRoot","type":"bytes32"},{"internalType":"uint256","name":"credentialCount","type":"uint256"},{"internalType":"uint256","name":"committedAt","type":"uint256"},{"internalType":"bool","name":"isRevoked","type":"bool"},{"internalType":"bool","name":"exists","type":"bool"}],"stateMutability":"view","type":"function"},{"inputs":[{"internalType":"string","name":"batchId","type":"string"},{"internalType":"bytes32","name":"merkleRoot","type":"bytes32"},{"internalType":"uint256","name":"credentialCount","type":"uint256"},{"internalType":"string[]","name":"studentDids","type":"string[]"},{"internalType":"uint256[]","name":"leafIndices","type":"uint256[]"},{"internalType":"string[]","name":"ipfsCids","type":"string[]"}],"name":"commitBatch","outputs":[],"stateMutability":"nonpayable","type":"function"},{"inputs":[{"internalType":"string","name":"batchId","type":"string"}],"name":"getBatch","outputs":[{"internalType":"bytes32","name":"merkleRoot","type":"bytes32"},{"internalType":"uint256","name":"credentialCount","type":"uint256"},{"internalType":"uint256","name":"committedAt","type":"uint256"},{"internalType":"bool","name":"isRevoked","type":"bool"},{"internalType":"bool","name":"exists","type":"bool"}],"stateMutability":"view","type":"function"},{"inputs":[{"internalType":"string","name":"studentDid","type":"string"}],"name":"getStudentCredentials","outputs":[{"internalType":"string[]","name":"batchIds","type":"string[]"},{"internalType":"uint256[]","name":"leafIndices","type":"uint256[]"},{"internalType":"string[]","name":"ipfsCids","type":"string[]"}],"stateMutability":"view","type":"function"},{"inputs":[{"internalType":"bytes32","name":"credentialHash","type":"bytes32"},{"internalType":"string","name":"batchId","type":"string"}],"name":"revokeCredential","outputs":[],"stateMutability":"nonpayable","type":"function"},{"inputs":[{"internalType":"bytes32","name":"","type":"bytes32"}],"name":"revokedCredentials","outputs":[{"internalType":"bool","name":"","type":"bool"}],"stateMutability":"view","type":"function"},{"inputs":[],"name":"totalBatches","outputs":[{"internalType":"uint256","name":"","type":"uint256"}],"stateMutability":"view","type":"function"},{"inputs":[],"name":"totalCredentials","outputs":[{"internalType":"uint256","name":"","type":"uint256"}],"stateMutability":"view","type":"function"},{"inputs":[],"name":"universityAddress","outputs":[{"internalType":"address","name":"","type":"address"}],"stateMutability":"view","type":"function"},{"inputs":[{"internalType":"string","name":"batchId","type":"string"},{"internalType":"bytes32","name":"credentialHash","type":"bytes32"},{"internalType":"bytes32[]","name":"proof","type":"bytes32[]"},{"internalType":"uint256","name":"leafIndex","type":"uint256"}],"name":"verifyCredential","outputs":[{"internalType":"bool","name":"isValid","type":"bool"},{"internalType":"bool","name":"isRevoked","type":"bool"},{"internalType":"uint256","name":"batchCommittedAt","type":"uint256"}],"stateMutability":"view","type":"function"}],"evm":{"bytecode":{"linkReferences":{},"object":"60a060405234801561000f575f80fd5b506040516114ae3803806114ae83398101604081905261002e91610099565b6001600160a01b0381166100885760405162461bcd60e51b815260206004820152601860248201527f5a65726f2061646472657373206e6f7420616c6c6f7765640000000000000000604482015260640160405180910390fd5b6001600160a01b03166080526100c6565b5f602082840312156100a9575f80fd5b81516001600160a01b03811681146100bf575f80fd5b9392505050565b6080516113c26100ec5f395f81816102390152818161027e01526106e401526113c25ff3fe608060405234801561000f575f80fd5b50600436106100a6575f3560e01c80637519322b1161006e5780637519322b146101295780637ef1446a1461014b578063b506acf9146101c7578063bfbdad27146101f1578063f9ca427414610221578063fdd7e0b914610234575f80fd5b80631513d62b146100aa578063249b92a0146100c65780634560b99b146100f8578063493814b51461010d57806369ff6abb14610120575b5f80fd5b6100b360055481565b6040519081526020015b60405180910390f35b6100e86100d4366004610d4e565b60026020525f908152604090205460ff1681565b60405190151581526020016100bd565b61010b610106366004610deb565b610273565b005b61010b61011b366004610ebb565b6106d9565b6100b360045481565b61013c610137366004610f03565b61087b565b6040516100bd93929190610fc2565b61019b61015936600461103e565b80516020818301810180516001808352938301929094019190912092905281549082015460028301546003909301549192909160ff8082169161010090041685565b60408051958652602086019490945292840191909152151560608301521515608082015260a0016100bd565b6100b36101d536600461103e565b80516020818301810180515f8252928201919093012091525481565b6102046101ff3660046110e9565b610b7a565b6040805193151584529115156020840152908201526060016100bd565b61019b61022f366004610f03565b610c2f565b61025b7f000000000000000000000000000000000000000000000000000000000000000081565b6040516001600160a01b0390911681526020016100bd565b336001600160a01b037f000000000000000000000000000000000000000000000000000000000000000016146102f05760405162461bcd60e51b815260206004820152601b60248201527f4f6e6c7920756e69766572736974792063616e20646f2074686973000000000060448201526064015b60405180910390fd5b60018a8a604051610302929190611165565b9081526040519081900360200190206003015460ff610100909104161561036b5760405162461bcd60e51b815260206004820152601760248201527f426174636820616c726561647920636f6d6d697474656400000000000000000060448201526064016102e7565b876103ae5760405162461bcd60e51b8152602060048201526013602482015272526f6f742063616e6e6f74206265207a65726f60681b60448201526064016102e7565b5f87116103f55760405162461bcd60e51b815260206004820152601560248201527442617463682063616e6e6f7420626520656d70747960581b60448201526064016102e7565b848314801561040357508281145b61044f5760405162461bcd60e51b815260206004820152601860248201527f4172726179206c656e67746873206d757374206d61746368000000000000000060448201526064016102e7565b6040518060a001604052808981526020018881526020014281526020015f151581526020016001151581525060018b8b60405161048d929190611165565b9081526040805191829003602090810190922083518155918301516001830155820151600282015560608201516003909101805460809093015115156101000261ff00199215159290921661ffff19909316929092171790555f5b8581101561064957600387878381811061050457610504611174565b90506020028101906105169190611188565b604051610524929190611165565b908152602001604051809103902060405180606001604052808d8d8080601f0160208091040260200160405190810160405280939291908181526020018383808284375f9201919091525050509082525060200187878581811061058a5761058a611174565b9050602002013581526020018585858181106105a8576105a8611174565b90506020028101906105ba9190611188565b8080601f0160208091040260200160405190810160405280939291908181526020018383808284375f9201829052509390945250508354600181018555938152602090208251929360030201918291506106149082611251565b5060208201516001820155604082015160028201906106339082611251565b505050808061064190611321565b9150506104e8565b5060048054905f61065983611321565b91905055508660055f82825461066f9190611339565b90915550506040518890610686908c908c90611165565b604080519182900382208a83523360208401524283830152905190917f5540a48770307bab65057382573800ae96000808be0b9504e14fd5941f251647919081900360600190a350505050505050505050565b336001600160a01b037f000000000000000000000000000000000000000000000000000000000000000016146107515760405162461bcd60e51b815260206004820152601b60248201527f4f6e6c7920756e69766572736974792063616e20646f2074686973000000000060448201526064016102e7565b60018282604051610763929190611165565b9081526040519081900360200190206003015460ff610100909104166107c25760405162461bcd60e51b815260206004820152601460248201527310985d18da08191bd95cc81b9bdd08195e1a5cdd60621b60448201526064016102e7565b5f8381526002602052604090205460ff16156108125760405162461bcd60e51b815260206004820152600f60248201526e105b1c9958591e481c995d9bdad959608a1b60448201526064016102e7565b5f8381526002602052604090819020805460ff191660011790555161083a9083908390611165565b6040519081900381203382529084907fb506b5ace193aea33fa649de07990e04e020fca7925a29ed529e28ccb8cc68e09060200160405180910390a3505050565b60608060605f60038686604051610893929190611165565b90815260405190819003602001902080549091508067ffffffffffffffff8111156108c0576108c061102a565b6040519080825280602002602001820160405280156108f357816020015b60608152602001906001900390816108de5790505b5094508067ffffffffffffffff81111561090f5761090f61102a565b604051908082528060200260200182016040528015610938578160200160208202803683370190505b5093508067ffffffffffffffff8111156109545761095461102a565b60405190808252806020026020018201604052801561098757816020015b60608152602001906001900390816109725790505b5092505f5b81811015610b70578281815481106109a6576109a6611174565b905f5260205f2090600302015f0180546109bf906111cb565b80601f01602080910402602001604051908101604052809291908181526020018280546109eb906111cb565b8015610a365780601f10610a0d57610100808354040283529160200191610a36565b820191905f5260205f20905b815481529060010190602001808311610a1957829003601f168201915b5050505050868281518110610a4d57610a4d611174565b6020026020010181905250828181548110610a6a57610a6a611174565b905f5260205f20906003020160010154858281518110610a8c57610a8c611174565b602002602001018181525050828181548110610aaa57610aaa611174565b905f5260205f2090600302016002018054610ac4906111cb565b80601f0160208091040260200160405190810160405280929190818152602001828054610af0906111cb565b8015610b3b5780601f10610b1257610100808354040283529160200191610b3b565b820191905f5260205f20905b815481529060010190602001808311610b1e57829003601f168201915b5050505050848281518110610b5257610b52611174565b60200260200101819052508080610b6890611321565b91505061098c565b5050509250925092565b5f805f8060018a8a604051610b90929190611165565b908152604051908190036020019020600381015490915060ff610100909104161580610bc05750600381015460ff165b15610bd957600301545f935060ff169150829050610c23565b5f8881526002602052604090205460ff1615610c0157600201545f9350600192509050610c23565b5f610c128888845f01548c8a610c87565b6002909201549194505f9350909150505b96509650969350505050565b5f805f805f8060018888604051610c47929190611165565b908152604051908190036020019020805460018201546002830154600390930154919b909a5091985060ff80821698506101009091041695509350505050565b5f82815b86811015610d41575f888883818110610ca657610ca6611174565b905060200201359050600285610cbc9190611366565b5f03610cf3576040805160208101859052908101829052606001604051602081830303815290604052805190602001209250610d20565b60408051602081018390529081018490526060016040516020818303038152906040528051906020012092505b610d2b600286611379565b9450508080610d3990611321565b915050610c8b565b5090931495945050505050565b5f60208284031215610d5e575f80fd5b5035919050565b5f8083601f840112610d75575f80fd5b50813567ffffffffffffffff811115610d8c575f80fd5b602083019150836020828501011115610da3575f80fd5b9250929050565b5f8083601f840112610dba575f80fd5b50813567ffffffffffffffff811115610dd1575f80fd5b6020830191508360208260051b8501011115610da3575f80fd5b5f805f805f805f805f8060c08b8d031215610e04575f80fd5b8a3567ffffffffffffffff80821115610e1b575f80fd5b610e278e838f01610d65565b909c509a5060208d0135995060408d0135985060608d0135915080821115610e4d575f80fd5b610e598e838f01610daa565b909850965060808d0135915080821115610e71575f80fd5b610e7d8e838f01610daa565b909650945060a08d0135915080821115610e95575f80fd5b50610ea28d828e01610daa565b915080935050809150509295989b9194979a5092959850565b5f805f60408486031215610ecd575f80fd5b83359250602084013567ffffffffffffffff811115610eea575f80fd5b610ef686828701610d65565b9497909650939450505050565b5f8060208385031215610f14575f80fd5b823567ffffffffffffffff811115610f2a575f80fd5b610f3685828601610d65565b90969095509350505050565b5f815180845260208085019450848260051b86018286015f805b86811015610fb4578484038a5282518051808652835b81811015610f8d578281018901518782018a01528801610f72565b5085810188018490529a87019a601f01601f19169094018601935091850191600101610f5c565b509198975050505050505050565b606081525f610fd46060830186610f42565b8281036020848101919091528551808352868201928201905f5b8181101561100a57845183529383019391830191600101610fee565b5050848103604086015261101e8187610f42565b98975050505050505050565b634e487b7160e01b5f52604160045260245ffd5b5f6020828403121561104e575f80fd5b813567ffffffffffffffff80821115611065575f80fd5b818401915084601f830112611078575f80fd5b81358181111561108a5761108a61102a565b604051601f8201601f19908116603f011681019083821181831017156110b2576110b261102a565b816040528281528760208487010111156110ca575f80fd5b826020860160208301375f928101602001929092525095945050505050565b5f805f805f80608087890312156110fe575f80fd5b863567ffffffffffffffff80821115611115575f80fd5b6111218a838b01610d65565b9098509650602089013595506040890135915080821115611140575f80fd5b5061114d89828a01610daa565b979a9699509497949695606090950135949350505050565b818382375f9101908152919050565b634e487b7160e01b5f52603260045260245ffd5b5f808335601e1984360301811261119d575f80fd5b83018035915067ffffffffffffffff8211156111b7575f80fd5b602001915036819003821315610da3575f80fd5b600181811c908216806111df57607f821691505b6020821081036111fd57634e487b7160e01b5f52602260045260245ffd5b50919050565b601f82111561124c575f81815260208120601f850160051c810160208610156112295750805b601f850160051c820191505b8181101561124857828155600101611235565b5050505b505050565b815167ffffffffffffffff81111561126b5761126b61102a565b61127f8161127984546111cb565b84611203565b602080601f8311600181146112b2575f841561129b5750858301515b5f19600386901b1c1916600185901b178555611248565b5f85815260208120601f198616915b828110156112e0578886015182559484019460019091019084016112c1565b50858210156112fd57878501515f19600388901b60f8161c191681555b5050505050600190811b01905550565b634e487b7160e01b5f52601160045260245ffd5b5f600182016113325761133261130d565b5060010190565b8082018082111561134c5761134c61130d565b92915050565b634e487b7160e01b5f52601260045260245ffd5b5f8261137457611374611352565b500690565b5f8261138757611387611352565b50049056fea2646970667358221220c9213cf2114c3287d5aa4cfafb526a6354e0f3f34bf5b5ac641c41804daa532464736f6c63430008140033","opcodes":"PUSH1 0xA0 PUSH1 0x40 MSTORE CALLVALUE DUP1 ISZERO PUSH2 0xF JUMPI PUSH0 DUP1 REVERT JUMPDEST POP PUSH1 0x40 MLOAD PUSH2 0x14AE CODESIZE SUB DUP1 PUSH2 0x14AE DUP4 CODECOPY DUP2 ADD PUSH1 0x40 DUP2 SWAP1 MSTORE PUSH2 0x2E SWAP2 PUSH2 0x99 JUMP JUMPDEST PUSH1 0x1 PUSH1 0x1 PUSH1 0xA0 SHL SUB DUP2 AND PUSH2 0x88 JUMPI PUSH1 0x40 MLOAD PUSH3 0x461BCD PUSH1 0xE5 SHL DUP2 MSTORE PUSH1 0x20 PUSH1 0x4 DUP3 ADD MSTORE PUSH1 0x18 PUSH1 0x24 DUP3 ADD MSTORE PUSH32 0x5A65726F2061646472657373206E6F7420616C6C6F7765640000000000000000 PUSH1 0x44 DUP3 ADD MSTORE PUSH1 0x64 ADD PUSH1 0x40 MLOAD DUP1 SWAP2 SUB SWAP1 REVERT JUMPDEST PUSH1 0x1 PUSH1 0x1 PUSH1 0xA0 SHL SUB AND PUSH1 0x80 MSTORE PUSH2 0xC6 JUMP JUMPDEST PUSH0 PUSH1 0x20 DUP3 DUP5 SUB SLT ISZERO PUSH2 0xA9 JUMPI PUSH0 DUP1 REVERT JUMPDEST DUP2 MLOAD PUSH1 0x1 PUSH1 0x1 PUSH1 0xA0 SHL SUB DUP2 AND DUP2 EQ PUSH2 0xBF JUMPI PUSH0 DUP1 REVERT JUMPDEST SWAP4 SWAP3 POP POP POP JUMP JUMPDEST PUSH1 0x80 MLOAD PUSH2 0x13C2 PUSH2 0xEC PUSH0 CODECOPY PUSH0 DUP2 DUP2 PUSH2 0x239 ADD MSTORE DUP2 DUP2 PUSH2 0x27E ADD MSTORE PUSH2 0x6E4 ADD MSTORE PUSH2 0x13C2 PUSH0 RETURN INVALID PUSH1 0x80 PUSH1 0x40 MSTORE CALLVALUE DUP1 ISZERO PUSH2 0xF JUMPI PUSH0 DUP1 REVERT JUMPDEST POP PUSH1 0x4 CALLDATASIZE LT PUSH2 0xA6 JUMPI PUSH0 CALLDATALOAD PUSH1 0xE0 SHR DUP1 PUSH4 0x7519322B GT PUSH2 0x6E JUMPI DUP1 PUSH4 0x7519322B EQ PUSH2 0x129 JUMPI DUP1 PUSH4 0x7EF1446A EQ PUSH2 0x14B JUMPI DUP1 PUSH4 0xB506ACF9 EQ PUSH2 0x1C7 JUMPI DUP1 PUSH4 0xBFBDAD27 EQ PUSH2 0x1F1 JUMPI DUP1 PUSH4 0xF9CA4274 EQ PUSH2 0x221 JUMPI DUP1 PUSH4 0xFDD7E0B9 EQ PUSH2 0x234 JUMPI PUSH0 DUP1 REVERT JUMPDEST DUP1 PUSH4 0x1513D62B EQ PUSH2 0xAA JUMPI DUP1 PUSH4 0x249B92A0 EQ PUSH2 0xC6 JUMPI DUP1 PUSH4 0x4560B99B EQ PUSH2 0xF8 JUMPI DUP1 PUSH4 0x493814B5 EQ PUSH2 0x10D JUMPI DUP1 PUSH4 0x69FF6ABB EQ PUSH2 0x120 JUMPI JUMPDEST PUSH0 DUP1 REVERT JUMPDEST PUSH2 0xB3 PUSH1 0x5 SLOAD DUP2 JUMP JUMPDEST PUSH1 0x40 MLOAD SWAP1 DUP2 MSTORE PUSH1 0x20 ADD JUMPDEST PUSH1 0x40 MLOAD DUP1 SWAP2 SUB SWAP1 RETURN JUMPDEST PUSH2 0xE8 PUSH2 0xD4 CALLDATASIZE PUSH1 0x4 PUSH2 0xD4E JUMP JUMPDEST PUSH1 0x2 PUSH1 0x20 MSTORE PUSH0 SWAP1 DUP2 MSTORE PUSH1 0x40 SWAP1 KECCAK256 SLOAD PUSH1 0xFF AND DUP2 JUMP JUMPDEST PUSH1 0x40 MLOAD SWAP1 ISZERO ISZERO DUP2 MSTORE PUSH1 0x20 ADD PUSH2 0xBD JUMP JUMPDEST PUSH2 0x10B PUSH2 0x106 CALLDATASIZE PUSH1 0x4 PUSH2 0xDEB JUMP JUMPDEST PUSH2 0x273 JUMP JUMPDEST STOP JUMPDEST PUSH2 0x10B PUSH2 0x11B CALLDATASIZE PUSH1 0x4 PUSH2 0xEBB JUMP JUMPDEST PUSH2 0x6D9 JUMP JUMPDEST PUSH2 0xB3 PUSH1 0x4 SLOAD DUP2 JUMP JUMPDEST PUSH2 0x13C PUSH2 0x137 CALLDATASIZE PUSH1 0x4 PUSH2 0xF03 JUMP JUMPDEST PUSH2 0x87B JUMP JUMPDEST PUSH1 0x40 MLOAD PUSH2 0xBD SWAP4 SWAP3 SWAP2 SWAP1 PUSH2 0xFC2 JUMP JUMPDEST PUSH2 0x19B PUSH2 0x159 CALLDATASIZE PUSH1 0x4 PUSH2 0x103E JUMP JUMPDEST DUP1 MLOAD PUSH1 0x20 DUP2 DUP4 ADD DUP2 ADD DUP1 MLOAD PUSH1 0x1 DUP1 DUP4 MSTORE SWAP4 DUP4 ADD SWAP3 SWAP1 SWAP5 ADD SWAP2 SWAP1 SWAP2 KECCAK256 SWAP3 SWAP1 MSTORE DUP2 SLOAD SWAP1 DUP3 ADD SLOAD PUSH1 0x2 DUP4 ADD SLOAD PUSH1 0x3 SWAP1 SWAP4 ADD SLOAD SWAP2 SWAP3 SWAP1 SWAP2 PUSH1 0xFF DUP1 DUP3 AND SWAP2 PUSH2 0x100 SWAP1 DIV AND DUP6 JUMP JUMPDEST PUSH1 0x40 DUP1 MLOAD SWAP6 DUP7 MSTORE PUSH1 0x20 DUP7 ADD SWAP5 SWAP1 SWAP5 MSTORE SWAP3 DUP5 ADD SWAP2 SWAP1 SWAP2 MSTORE ISZERO ISZERO PUSH1 0x60 DUP4 ADD MSTORE ISZERO ISZERO PUSH1 0x80 DUP3 ADD MSTORE PUSH1 0xA0 ADD PUSH2 0xBD JUMP JUMPDEST PUSH2 0xB3 PUSH2 0x1D5 CALLDATASIZE PUSH1 0x4 PUSH2 0x103E JUMP JUMPDEST DUP1 MLOAD PUSH1 0x20 DUP2 DUP4 ADD DUP2 ADD DUP1 MLOAD PUSH0 DUP3 MSTORE SWAP3 DUP3 ADD SWAP2 SWAP1 SWAP4 ADD KECCAK256 SWAP2 MSTORE SLOAD DUP2 JUMP JUMPDEST PUSH2 0x204 PUSH2 0x1FF CALLDATASIZE PUSH1 0x4 PUSH2 0x10E9 JUMP JUMPDEST PUSH2 0xB7A JUMP JUMPDEST PUSH1 0x40 DUP1 MLOAD SWAP4 ISZERO ISZERO DUP5 MSTORE SWAP2 ISZERO ISZERO PUSH1 0x20 DUP5 ADD MSTORE SWAP1 DUP3 ADD MSTORE PUSH1 0x60 ADD PUSH2 0xBD JUMP JUMPDEST PUSH2 0x19B PUSH2 0x22F CALLDATASIZE PUSH1 0x4 PUSH2 0xF03 JUMP JUMPDEST PUSH2 0xC2F JUMP JUMPDEST PUSH2 0x25B PUSH32 0x0 DUP2 JUMP JUMPDEST PUSH1 0x40 MLOAD PUSH1 0x1 PUSH1 0x1 PUSH1 0xA0 SHL SUB SWAP1 SWAP2 AND DUP2 MSTORE PUSH1 0x20 ADD PUSH2 0xBD JUMP JUMPDEST CALLER PUSH1 0x1 PUSH1 0x1 PUSH1 0xA0 SHL SUB PUSH32 0x0 AND EQ PUSH2 0x2F0 JUMPI PUSH1 0x40 MLOAD PUSH3 0x461BCD PUSH1 0xE5 SHL DUP2 MSTORE PUSH1 0x20 PUSH1 0x4 DUP3 ADD MSTORE PUSH1 0x1B PUSH1 0x24 DUP3 ADD MSTORE PUSH32 0x4F6E6C7920756E69766572736974792063616E20646F20746869730000000000 PUSH1 0x44 DUP3 ADD MSTORE PUSH1 0x64 ADD JUMPDEST PUSH1 0x40 MLOAD DUP1 SWAP2 SUB SWAP1 REVERT JUMPDEST PUSH1 0x1 DUP11 DUP11 PUSH1 0x40 MLOAD PUSH2 0x302 SWAP3 SWAP2 SWAP1 PUSH2 0x1165 JUMP JUMPDEST SWAP1 DUP2 MSTORE PUSH1 0x40 MLOAD SWAP1 DUP2 SWAP1 SUB PUSH1 0x20 ADD SWAP1 KECCAK256 PUSH1 0x3 ADD SLOAD PUSH1 0xFF PUSH2 0x100 SWAP1 SWAP2 DIV AND ISZERO PUSH2 0x36B JUMPI PUSH1 0x40 MLOAD PUSH3 0x461BCD PUSH1 0xE5 SHL DUP2 MSTORE PUSH1 0x20 PUSH1 0x4 DUP3 ADD MSTORE PUSH1 0x17 PUSH1 0x24 DUP3 ADD MSTORE PUSH32 0x426174636820616C726561647920636F6D6D6974746564000000000000000000 PUSH1 0x44 DUP3 ADD MSTORE PUSH1 0x64 ADD PUSH2 0x2E7 JUMP JUMPDEST DUP8 PUSH2 0x3AE JUMPI PUSH1 0x40 MLOAD PUSH3 0x461BCD PUSH1 0xE5 SHL DUP2 MSTORE PUSH1 0x20 PUSH1 0x4 DUP3 ADD MSTORE PUSH1 0x13 PUSH1 0x24 DUP3 ADD MSTORE PUSH19 0x526F6F742063616E6E6F74206265207A65726F PUSH1 0x68 SHL PUSH1 0x44 DUP3 ADD MSTORE PUSH1 0x64 ADD PUSH2 0x2E7 JUMP JUMPDEST PUSH0 DUP8 GT PUSH2 0x3F5 JUMPI PUSH1 0x40 MLOAD PUSH3 0x461BCD PUSH1 0xE5 SHL DUP2 MSTORE PUSH1 0x20 PUSH1 0x4 DUP3 ADD MSTORE PUSH1 0x15 PUSH1 0x24 DUP3 ADD MSTORE PUSH21 0x42617463682063616E6E6F7420626520656D707479 PUSH1 0x58 SHL PUSH1 0x44 DUP3 ADD MSTORE PUSH1 0x64 ADD PUSH2 0x2E7 JUMP JUMPDEST DUP5 DUP4 EQ DUP1 ISZERO PUSH2 0x403 JUMPI POP DUP3 DUP2 EQ JUMPDEST PUSH2 0x44F JUMPI PUSH1 0x40 MLOAD PUSH3 0x461BCD PUSH1 0xE5 SHL DUP2 MSTORE PUSH1 0x20 PUSH1 0x4 DUP3 ADD MSTORE PUSH1 0x18 PUSH1 0x24 DUP3 ADD MSTORE PUSH32 0x4172726179206C656E67746873206D757374206D617463680000000000000000 PUSH1 0x44 DUP3 ADD MSTORE PUSH1 0x64 ADD PUSH2 0x2E7 JUMP JUMPDEST PUSH1 0x40 MLOAD DUP1 PUSH1 0xA0 ADD PUSH1 0x40 MSTORE DUP1 DUP10 DUP2 MSTORE PUSH1 0x20 ADD DUP9 DUP2 MSTORE PUSH1 0x20 ADD TIMESTAMP DUP2 MSTORE PUSH1 0x20 ADD PUSH0 ISZERO ISZERO DUP2 MSTORE PUSH1 0x20 ADD PUSH1 0x1 ISZERO ISZERO DUP2 MSTORE POP PUSH1 0x1 DUP12 DUP12 PUSH1 0x40 MLOAD PUSH2 0x48D SWAP3 SWAP2 SWAP1 PUSH2 0x1165 JUMP JUMPDEST SWAP1 DUP2 MSTORE PUSH1 0x40 DUP1 MLOAD SWAP2 DUP3 SWAP1 SUB PUSH1 0x20 SWAP1 DUP2 ADD SWAP1 SWAP3 KECCAK256 DUP4 MLOAD DUP2 SSTORE SWAP2 DUP4 ADD MLOAD PUSH1 0x1 DUP4 ADD SSTORE DUP3 ADD MLOAD PUSH1 0x2 DUP3 ADD SSTORE PUSH1 0x60 DUP3 ADD MLOAD PUSH1 0x3 SWAP1 SWAP2 ADD DUP1 SLOAD PUSH1 0x80 SWAP1 SWAP4 ADD MLOAD ISZERO ISZERO PUSH2 0x100 MUL PUSH2 0xFF00 NOT SWAP3 ISZERO ISZERO SWAP3 SWAP1 SWAP3 AND PUSH2 0xFFFF NOT SWAP1 SWAP4 AND SWAP3 SWAP1 SWAP3 OR OR SWAP1 SSTORE PUSH0 JUMPDEST DUP6 DUP2 LT ISZERO PUSH2 0x649 JUMPI PUSH1 0x3 DUP8 DUP8 DUP4 DUP2 DUP2 LT PUSH2 0x504 JUMPI PUSH2 0x504 PUSH2 0x1174 JUMP JUMPDEST SWAP1 POP PUSH1 0x20 MUL DUP2 ADD SWAP1 PUSH2 0x516 SWAP2 SWAP1 PUSH2 0x1188 JUMP JUMPDEST PUSH1 0x40 MLOAD PUSH2 0x524 SWAP3 SWAP2 SWAP1 PUSH2 0x1165 JUMP JUMPDEST SWAP1 DUP2 MSTORE PUSH1 0x20 ADD PUSH1 0x40 MLOAD DUP1 SWAP2 SUB SWAP1 KECCAK256 PUSH1 0x40 MLOAD DUP1 PUSH1 0x60 ADD PUSH1 0x40 MSTORE DUP1 DUP14 DUP14 DUP1 DUP1 PUSH1 0x1F ADD PUSH1 0x20 DUP1 SWAP2 DIV MUL PUSH1 0x20 ADD PUSH1 0x40 MLOAD SWAP1 DUP2 ADD PUSH1 0x40 MSTORE DUP1 SWAP4 SWAP3 SWAP2 SWAP1 DUP2 DUP2 MSTORE PUSH1 0x20 ADD DUP4 DUP4 DUP1 DUP3 DUP5 CALLDATACOPY PUSH0 SWAP3 ADD SWAP2 SWAP1 SWAP2 MSTORE POP POP POP SWAP1 DUP3 MSTORE POP PUSH1 0x20 ADD DUP8 DUP8 DUP6 DUP2 DUP2 LT PUSH2 0x58A JUMPI PUSH2 0x58A PUSH2 0x1174 JUMP JUMPDEST SWAP1 POP PUSH1 0x20 MUL ADD CALLDATALOAD DUP2 MSTORE PUSH1 0x20 ADD DUP6 DUP6 DUP6 DUP2 DUP2 LT PUSH2 0x5A8 JUMPI PUSH2 0x5A8 PUSH2 0x1174 JUMP JUMPDEST SWAP1 POP PUSH1 0x20 MUL DUP2 ADD SWAP1 PUSH2 0x5BA SWAP2 SWAP1 PUSH2 0x1188 JUMP JUMPDEST DUP1 DUP1 PUSH1 0x1F ADD PUSH1 0x20 DUP1 SWAP2 DIV MUL PUSH1 0x20 ADD PUSH1 0x40 MLOAD SWAP1 DUP2 ADD PUSH1 0x40 MSTORE DUP1 SWAP4 SWAP3 SWAP2 SWAP1 DUP2 DUP2 MSTORE PUSH1 0x20 ADD DUP4 DUP4 DUP1 DUP3 DUP5 CALLDATACOPY PUSH0 SWAP3 ADD DUP3 SWAP1 MSTORE POP SWAP4 SWAP1 SWAP5 MSTORE POP POP DUP4 SLOAD PUSH1 0x1 DUP2 ADD DUP6 SSTORE SWAP4 DUP2 MSTORE PUSH1 0x20 SWAP1 KECCAK256 DUP3 MLOAD SWAP3 SWAP4 PUSH1 0x3 MUL ADD SWAP2 DUP3 SWAP2 POP PUSH2 0x614 SWAP1 DUP3 PUSH2 0x1251 JUMP JUMPDEST POP PUSH1 0x20 DUP3 ADD MLOAD PUSH1 0x1 DUP3 ADD SSTORE PUSH1 0x40 DUP3 ADD MLOAD PUSH1 0x2 DUP3 ADD SWAP1 PUSH2 0x633 SWAP1 DUP3 PUSH2 0x1251 JUMP JUMPDEST POP POP POP DUP1 DUP1 PUSH2 0x641 SWAP1 PUSH2 0x1321 JUMP JUMPDEST SWAP2 POP POP PUSH2 0x4E8 JUMP JUMPDEST POP PUSH1 0x4 DUP1 SLOAD SWAP1 PUSH0 PUSH2 0x659 DUP4 PUSH2 0x1321 JUMP JUMPDEST SWAP2 SWAP1 POP SSTORE POP DUP7 PUSH1 0x5 PUSH0 DUP3 DUP3 SLOAD PUSH2 0x66F SWAP2 SWAP1 PUSH2 0x1339 JUMP JUMPDEST SWAP1 SWAP2 SSTORE POP POP PUSH1 0x40 MLOAD DUP9 SWAP1 PUSH2 0x686 SWAP1 DUP13 SWAP1 DUP13 SWAP1 PUSH2 0x1165 JUMP JUMPDEST PUSH1 0x40 DUP1 MLOAD SWAP2 DUP3 SWAP1 SUB DUP3 KECCAK256 DUP11 DUP4 MSTORE CALLER PUSH1 0x20 DUP5 ADD MSTORE TIMESTAMP DUP4 DUP4 ADD MSTORE SWAP1 MLOAD SWAP1 SWAP2 PUSH32 0x5540A48770307BAB65057382573800AE96000808BE0B9504E14FD5941F251647 SWAP2 SWAP1 DUP2 SWAP1 SUB PUSH1 0x60 ADD SWAP1 LOG3 POP POP POP POP POP POP POP POP POP POP JUMP JUMPDEST CALLER PUSH1 0x1 PUSH1 0x1 PUSH1 0xA0 SHL SUB PUSH32 0x0 AND EQ PUSH2 0x751 JUMPI PUSH1 0x40 MLOAD PUSH3 0x461BCD PUSH1 0xE5 SHL DUP2 MSTORE PUSH1 0x20 PUSH1 0x4 DUP3 ADD MSTORE PUSH1 0x1B PUSH1 0x24 DUP3 ADD MSTORE PUSH32 0x4F6E6C7920756E69766572736974792063616E20646F20746869730000000000 PUSH1 0x44 DUP3 ADD MSTORE PUSH1 0x64 ADD PUSH2 0x2E7 JUMP JUMPDEST PUSH1 0x1 DUP3 DUP3 PUSH1 0x40 MLOAD PUSH2 0x763 SWAP3 SWAP2 SWAP1 PUSH2 0x1165 JUMP JUMPDEST SWAP1 DUP2 MSTORE PUSH1 0x40 MLOAD SWAP1 DUP2 SWAP1 SUB PUSH1 0x20 ADD SWAP1 KECCAK256 PUSH1 0x3 ADD SLOAD PUSH1 0xFF PUSH2 0x100 SWAP1 SWAP2 DIV AND PUSH2 0x7C2 JUMPI PUSH1 0x40 MLOAD PUSH3 0x461BCD PUSH1 0xE5 SHL DUP2 MSTORE PUSH1 0x20 PUSH1 0x4 DUP3 ADD MSTORE PUSH1 0x14 PUSH1 0x24 DUP3 ADD MSTORE PUSH20 0x10985D18DA08191BD95CC81B9BDD08195E1A5CDD PUSH1 0x62 SHL PUSH1 0x44 DUP3 ADD MSTORE PUSH1 0x64 ADD PUSH2 0x2E7 JUMP JUMPDEST PUSH0 DUP4 DUP2 MSTORE PUSH1 0x2 PUSH1 0x20 MSTORE PUSH1 0x40 SWAP1 KECCAK256 SLOAD PUSH1 0xFF AND ISZERO PUSH2 0x812 JUMPI PUSH1 0x40 MLOAD PUSH3 0x461BCD PUSH1 0xE5 SHL DUP2 MSTORE PUSH1 0x20 PUSH1 0x4 DUP3 ADD MSTORE PUSH1 0xF PUSH1 0x24 DUP3 ADD MSTORE PUSH15 0x105B1C9958591E481C995D9BDAD959 PUSH1 0x8A SHL PUSH1 0x44 DUP3 ADD MSTORE PUSH1 0x64 ADD PUSH2 0x2E7 JUMP JUMPDEST PUSH0 DUP4 DUP2 MSTORE PUSH1 0x2 PUSH1 0x20 MSTORE PUSH1 0x40 SWAP1 DUP2 SWAP1 KECCAK256 DUP1 SLOAD PUSH1 0xFF NOT AND PUSH1 0x1 OR SWAP1 SSTORE MLOAD PUSH2 0x83A SWAP1 DUP4 SWAP1 DUP4 SWAP1 PUSH2 0x1165 JUMP JUMPDEST PUSH1 0x40 MLOAD SWAP1 DUP2 SWAP1 SUB DUP2 KECCAK256 CALLER DUP3 MSTORE SWAP1 DUP5 SWAP1 PUSH32 0xB506B5ACE193AEA33FA649DE07990E04E020FCA7925A29ED529E28CCB8CC68E0 SWAP1 PUSH1 0x20 ADD PUSH1 0x40 MLOAD DUP1 SWAP2 SUB SWAP1 LOG3 POP POP POP JUMP JUMPDEST PUSH1 0x60 DUP1 PUSH1 0x60 PUSH0 PUSH1 0x3 DUP7 DUP7 PUSH1 0x40 MLOAD PUSH2 0x893 SWAP3 SWAP2 SWAP1 PUSH2 0x1165 JUMP JUMPDEST SWAP1 DUP2 MSTORE PUSH1 0x40 MLOAD SWAP1 DUP2 SWAP1 SUB PUSH1 0x20 ADD SWAP1 KECCAK256 DUP1 SLOAD SWAP1 SWAP2 POP DUP1 PUSH8 0xFFFFFFFFFFFFFFFF DUP2 GT ISZERO PUSH2 0x8C0 JUMPI PUSH2 0x8C0 PUSH2 0x102A JUMP JUMPDEST PUSH1 0x40 MLOAD SWAP1 DUP1 DUP3 MSTORE DUP1 PUSH1 0x20 MUL PUSH1 0x20 ADD DUP3 ADD PUSH1 0x40 MSTORE DUP1 ISZERO PUSH2 0x8F3 JUMPI DUP2 PUSH1 0x20 ADD JUMPDEST PUSH1 0x60 DUP2 MSTORE PUSH1 0x20 ADD SWAP1 PUSH1 0x1 SWAP1 SUB SWAP1 DUP2 PUSH2 0x8DE JUMPI SWAP1 POP JUMPDEST POP SWAP5 POP DUP1 PUSH8 0xFFFFFFFFFFFFFFFF DUP2 GT ISZERO PUSH2 0x90F JUMPI PUSH2 0x90F PUSH2 0x102A JUMP JUMPDEST PUSH1 0x40 MLOAD SWAP1 DUP1 DUP3 MSTORE DUP1 PUSH1 0x20 MUL PUSH1 0x20 ADD DUP3 ADD PUSH1 0x40 MSTORE DUP1 ISZERO PUSH2 0x938 JUMPI DUP2 PUSH1 0x20 ADD PUSH1 0x20 DUP3 MUL DUP1 CALLDATASIZE DUP4 CALLDATACOPY ADD SWAP1 POP JUMPDEST POP SWAP4 POP DUP1 PUSH8 0xFFFFFFFFFFFFFFFF DUP2 GT ISZERO PUSH2 0x954 JUMPI PUSH2 0x954 PUSH2 0x102A JUMP JUMPDEST PUSH1 0x40 MLOAD SWAP1 DUP1 DUP3 MSTORE DUP1 PUSH1 0x20 MUL PUSH1 0x20 ADD DUP3 ADD PUSH1 0x40 MSTORE DUP1 ISZERO PUSH2 0x987 JUMPI DUP2 PUSH1 0x20 ADD JUMPDEST PUSH1 0x60 DUP2 MSTORE PUSH1 0x20 ADD SWAP1 PUSH1 0x1 SWAP1 SUB SWAP1 DUP2 PUSH2 0x972 JUMPI SWAP1 POP JUMPDEST POP SWAP3 POP PUSH0 JUMPDEST DUP2 DUP2 LT ISZERO PUSH2 0xB70 JUMPI DUP3 DUP2 DUP2 SLOAD DUP2 LT PUSH2 0x9A6 JUMPI PUSH2 0x9A6 PUSH2 0x1174 JUMP JUMPDEST SWAP1 PUSH0 MSTORE PUSH1 0x20 PUSH0 KECCAK256 SWAP1 PUSH1 0x3 MUL ADD PUSH0 ADD DUP1 SLOAD PUSH2 0x9BF SWAP1 PUSH2 0x11CB JUMP JUMPDEST DUP1 PUSH1 0x1F ADD PUSH1 0x20 DUP1 SWAP2 DIV MUL PUSH1 0x20 ADD PUSH1 0x40 MLOAD SWAP1 DUP2 ADD PUSH1 0x40 MSTORE DUP1 SWAP3 SWAP2 SWAP1 DUP2 DUP2 MSTORE PUSH1 0x20 ADD DUP3 DUP1 SLOAD PUSH2 0x9EB SWAP1 PUSH2 0x11CB JUMP JUMPDEST DUP1 ISZERO PUSH2 0xA36 JUMPI DUP1 PUSH1 0x1F LT PUSH2 0xA0D JUMPI PUSH2 0x100 DUP1 DUP4 SLOAD DIV MUL DUP4 MSTORE SWAP2 PUSH1 0x20 ADD SWAP2 PUSH2 0xA36 JUMP JUMPDEST DUP3 ADD SWAP2 SWAP1 PUSH0 MSTORE PUSH1 0x20 PUSH0 KECCAK256 SWAP1 JUMPDEST DUP2 SLOAD DUP2 MSTORE SWAP1 PUSH1 0x1 ADD SWAP1 PUSH1 0x20 ADD DUP1 DUP4 GT PUSH2 0xA19 JUMPI DUP3 SWAP1 SUB PUSH1 0x1F AND DUP3 ADD SWAP2 JUMPDEST POP POP POP POP POP DUP7 DUP3 DUP2 MLOAD DUP2 LT PUSH2 0xA4D JUMPI PUSH2 0xA4D PUSH2 0x1174 JUMP JUMPDEST PUSH1 0x20 MUL PUSH1 0x20 ADD ADD DUP2 SWAP1 MSTORE POP DUP3 DUP2 DUP2 SLOAD DUP2 LT PUSH2 0xA6A JUMPI PUSH2 0xA6A PUSH2 0x1174 JUMP JUMPDEST SWAP1 PUSH0 MSTORE PUSH1 0x20 PUSH0 KECCAK256 SWAP1 PUSH1 0x3 MUL ADD PUSH1 0x1 ADD SLOAD DUP6 DUP3 DUP2 MLOAD DUP2 LT PUSH2 0xA8C JUMPI PUSH2 0xA8C PUSH2 0x1174 JUMP JUMPDEST PUSH1 0x20 MUL PUSH1 0x20 ADD ADD DUP2 DUP2 MSTORE POP POP DUP3 DUP2 DUP2 SLOAD DUP2 LT PUSH2 0xAAA JUMPI PUSH2 0xAAA PUSH2 0x1174 JUMP JUMPDEST SWAP1 PUSH0 MSTORE PUSH1 0x20 PUSH0 KECCAK256 SWAP1 PUSH1 0x3 MUL ADD PUSH1 0x2 ADD DUP1 SLOAD PUSH2 0xAC4 SWAP1 PUSH2 0x11CB JUMP JUMPDEST DUP1 PUSH1 0x1F ADD PUSH1 0x20 DUP1 SWAP2 DIV MUL PUSH1 0x20 ADD PUSH1 0x40 MLOAD SWAP1 DUP2 ADD PUSH1 0x40 MSTORE DUP1 SWAP3 SWAP2 SWAP1 DUP2 DUP2 MSTORE PUSH1 0x20 ADD DUP3 DUP1 SLOAD PUSH2 0xAF0 SWAP1 PUSH2 0x11CB JUMP JUMPDEST DUP1 ISZERO PUSH2 0xB3B JUMPI DUP1 PUSH1 0x1F LT PUSH2 0xB12 JUMPI PUSH2 0x100 DUP1 DUP4 SLOAD DIV MUL DUP4 MSTORE SWAP2 PUSH1 0x20 ADD SWAP2 PUSH2 0xB3B JUMP JUMPDEST DUP3 ADD SWAP2 SWAP1 PUSH0 MSTORE PUSH1 0x20 PUSH0 KECCAK256 SWAP1 JUMPDEST DUP2 SLOAD DUP2 MSTORE SWAP1 PUSH1 0x1 ADD SWAP1 PUSH1 0x20 ADD DUP1 DUP4 GT PUSH2 0xB1E JUMPI DUP3 SWAP1 SUB PUSH1 0x1F AND DUP3 ADD SWAP2 JUMPDEST POP POP POP POP POP DUP5 DUP3 DUP2 MLOAD DUP2 LT PUSH2 0xB52 JUMPI PUSH2 0xB52 PUSH2 0x1174 JUMP JUMPDEST PUSH1 0x20 MUL PUSH1 0x20 ADD ADD DUP2 SWAP1 MSTORE POP DUP1 DUP1 PUSH2 0xB68 SWAP1 PUSH2 0x1321 JUMP JUMPDEST SWAP2 POP POP PUSH2 0x98C JUMP JUMPDEST POP POP POP SWAP3 POP SWAP3 POP SWAP3 JUMP JUMPDEST PUSH0 DUP1 PUSH0 DUP1 PUSH1 0x1 DUP11 DUP11 PUSH1 0x40 MLOAD PUSH2 0xB90 SWAP3 SWAP2 SWAP1 PUSH2 0x1165 JUMP JUMPDEST SWAP1 DUP2 MSTORE PUSH1 0x40 MLOAD SWAP1 DUP2 SWAP1 SUB PUSH1 0x20 ADD SWAP1 KECCAK256 PUSH1 0x3 DUP2 ADD SLOAD SWAP1 SWAP2 POP PUSH1 0xFF PUSH2 0x100 SWAP1 SWAP2 DIV AND ISZERO DUP1 PUSH2 0xBC0 JUMPI POP PUSH1 0x3 DUP2 ADD SLOAD PUSH1 0xFF AND JUMPDEST ISZERO PUSH2 0xBD9 JUMPI PUSH1 0x3 ADD SLOAD PUSH0 SWAP4 POP PUSH1 0xFF AND SWAP2 POP DUP3 SWAP1 POP PUSH2 0xC23 JUMP JUMPDEST PUSH0 DUP9 DUP2 MSTORE PUSH1 0x2 PUSH1 0x20 MSTORE PUSH1 0x40 SWAP1 KECCAK256 SLOAD PUSH1 0xFF AND ISZERO PUSH2 0xC01 JUMPI PUSH1 0x2 ADD SLOAD PUSH0 SWAP4 POP PUSH1 0x1 SWAP3 POP SWAP1 POP PUSH2 0xC23 JUMP JUMPDEST PUSH0 PUSH2 0xC12 DUP9 DUP9 DUP5 PUSH0 ADD SLOAD DUP13 DUP11 PUSH2 0xC87 JUMP JUMPDEST PUSH1 0x2 SWAP1 SWAP3 ADD SLOAD SWAP2 SWAP5 POP PUSH0 SWAP4 POP SWAP1 SWAP2 POP POP JUMPDEST SWAP7 POP SWAP7 POP SWAP7 SWAP4 POP POP POP POP JUMP JUMPDEST PUSH0 DUP1 PUSH0 DUP1 PUSH0 DUP1 PUSH1 0x1 DUP9 DUP9 PUSH1 0x40 MLOAD PUSH2 0xC47 SWAP3 SWAP2 SWAP1 PUSH2 0x1165 JUMP JUMPDEST SWAP1 DUP2 MSTORE PUSH1 0x40 MLOAD SWAP1 DUP2 SWAP1 SUB PUSH1 0x20 ADD SWAP1 KECCAK256 DUP1 SLOAD PUSH1 0x1 DUP3 ADD SLOAD PUSH1 0x2 DUP4 ADD SLOAD PUSH1 0x3 SWAP1 SWAP4 ADD SLOAD SWAP2 SWAP12 SWAP1 SWAP11 POP SWAP2 SWAP9 POP PUSH1 0xFF DUP1 DUP3 AND SWAP9 POP PUSH2 0x100 SWAP1 SWAP2 DIV AND SWAP6 POP SWAP4 POP POP POP POP JUMP JUMPDEST PUSH0 DUP3 DUP2 JUMPDEST DUP7 DUP2 LT ISZERO PUSH2 0xD41 JUMPI PUSH0 DUP9 DUP9 DUP4 DUP2 DUP2 LT PUSH2 0xCA6 JUMPI PUSH2 0xCA6 PUSH2 0x1174 JUMP JUMPDEST SWAP1 POP PUSH1 0x20 MUL ADD CALLDATALOAD SWAP1 POP PUSH1 0x2 DUP6 PUSH2 0xCBC SWAP2 SWAP1 PUSH2 0x1366 JUMP JUMPDEST PUSH0 SUB PUSH2 0xCF3 JUMPI PUSH1 0x40 DUP1 MLOAD PUSH1 0x20 DUP2 ADD DUP6 SWAP1 MSTORE SWAP1 DUP2 ADD DUP3 SWAP1 MSTORE PUSH1 0x60 ADD PUSH1 0x40 MLOAD PUSH1 0x20 DUP2 DUP4 SUB SUB DUP2 MSTORE SWAP1 PUSH1 0x40 MSTORE DUP1 MLOAD SWAP1 PUSH1 0x20 ADD KECCAK256 SWAP3 POP PUSH2 0xD20 JUMP JUMPDEST PUSH1 0x40 DUP1 MLOAD PUSH1 0x20 DUP2 ADD DUP4 SWAP1 MSTORE SWAP1 DUP2 ADD DUP5 SWAP1 MSTORE PUSH1 0x60 ADD PUSH1 0x40 MLOAD PUSH1 0x20 DUP2 DUP4 SUB SUB DUP2 MSTORE SWAP1 PUSH1 0x40 MSTORE DUP1 MLOAD SWAP1 PUSH1 0x20 ADD KECCAK256 SWAP3 POP JUMPDEST PUSH2 0xD2B PUSH1 0x2 DUP7 PUSH2 0x1379 JUMP JUMPDEST SWAP5 POP POP DUP1 DUP1 PUSH2 0xD39 SWAP1 PUSH2 0x1321 JUMP JUMPDEST SWAP2 POP POP PUSH2 0xC8B JUMP JUMPDEST POP SWAP1 SWAP4 EQ SWAP6 SWAP5 POP POP POP POP POP JUMP JUMPDEST PUSH0 PUSH1 0x20 DUP3 DUP5 SUB SLT ISZERO PUSH2 0xD5E JUMPI PUSH0 DUP1 REVERT JUMPDEST POP CALLDATALOAD SWAP2 SWAP1 POP JUMP JUMPDEST PUSH0 DUP1 DUP4 PUSH1 0x1F DUP5 ADD SLT PUSH2 0xD75 JUMPI PUSH0 DUP1 REVERT JUMPDEST POP DUP2 CALLDATALOAD PUSH8 0xFFFFFFFFFFFFFFFF DUP2 GT ISZERO PUSH2 0xD8C JUMPI PUSH0 DUP1 REVERT JUMPDEST PUSH1 0x20 DUP4 ADD SWAP2 POP DUP4 PUSH1 0x20 DUP3 DUP6 ADD ADD GT ISZERO PUSH2 0xDA3 JUMPI PUSH0 DUP1 REVERT JUMPDEST SWAP3 POP SWAP3 SWAP1 POP JUMP JUMPDEST PUSH0 DUP1 DUP4 PUSH1 0x1F DUP5 ADD SLT PUSH2 0xDBA JUMPI PUSH0 DUP1 REVERT JUMPDEST POP DUP2 CALLDATALOAD PUSH8 0xFFFFFFFFFFFFFFFF DUP2 GT ISZERO PUSH2 0xDD1 JUMPI PUSH0 DUP1 REVERT JUMPDEST PUSH1 0x20 DUP4 ADD SWAP2 POP DUP4 PUSH1 0x20 DUP3 PUSH1 0x5 SHL DUP6 ADD ADD GT ISZERO PUSH2 0xDA3 JUMPI PUSH0 DUP1 REVERT JUMPDEST PUSH0 DUP1 PUSH0 DUP1 PUSH0 DUP1 PUSH0 DUP1 PUSH0 DUP1 PUSH1 0xC0 DUP12 DUP14 SUB SLT ISZERO PUSH2 0xE04 JUMPI PUSH0 DUP1 REVERT JUMPDEST DUP11 CALLDATALOAD PUSH8 0xFFFFFFFFFFFFFFFF DUP1 DUP3 GT ISZERO PUSH2 0xE1B JUMPI PUSH0 DUP1 REVERT JUMPDEST PUSH2 0xE27 DUP15 DUP4 DUP16 ADD PUSH2 0xD65 JUMP JUMPDEST SWAP1 SWAP13 POP SWAP11 POP PUSH1 0x20 DUP14 ADD CALLDATALOAD SWAP10 POP PUSH1 0x40 DUP14 ADD CALLDATALOAD SWAP9 POP PUSH1 0x60 DUP14 ADD CALLDATALOAD SWAP2 POP DUP1 DUP3 GT ISZERO PUSH2 0xE4D JUMPI PUSH0 DUP1 REVERT JUMPDEST PUSH2 0xE59 DUP15 DUP4 DUP16 ADD PUSH2 0xDAA JUMP JUMPDEST SWAP1 SWAP9 POP SWAP7 POP PUSH1 0x80 DUP14 ADD CALLDATALOAD SWAP2 POP DUP1 DUP3 GT ISZERO PUSH2 0xE71 JUMPI PUSH0 DUP1 REVERT JUMPDEST PUSH2 0xE7D DUP15 DUP4 DUP16 ADD PUSH2 0xDAA JUMP JUMPDEST SWAP1 SWAP7 POP SWAP5 POP PUSH1 0xA0 DUP14 ADD CALLDATALOAD SWAP2 POP DUP1 DUP3 GT ISZERO PUSH2 0xE95 JUMPI PUSH0 DUP1 REVERT JUMPDEST POP PUSH2 0xEA2 DUP14 DUP3 DUP15 ADD PUSH2 0xDAA JUMP JUMPDEST SWAP2 POP DUP1 SWAP4 POP POP DUP1 SWAP2 POP POP SWAP3 SWAP6 SWAP9 SWAP12 SWAP2 SWAP5 SWAP8 SWAP11 POP SWAP3 SWAP6 SWAP9 POP JUMP JUMPDEST PUSH0 DUP1 PUSH0 PUSH1 0x40 DUP5 DUP7 SUB SLT ISZERO PUSH2 0xECD JUMPI PUSH0 DUP1 REVERT JUMPDEST DUP4 CALLDATALOAD SWAP3 POP PUSH1 0x20 DUP5 ADD CALLDATALOAD PUSH8 0xFFFFFFFFFFFFFFFF DUP2 GT ISZERO PUSH2 0xEEA JUMPI PUSH0 DUP1 REVERT JUMPDEST PUSH2 0xEF6 DUP7 DUP3 DUP8 ADD PUSH2 0xD65 JUMP JUMPDEST SWAP5 SWAP8 SWAP1 SWAP7 POP SWAP4 SWAP5 POP POP POP POP JUMP JUMPDEST PUSH0 DUP1 PUSH1 0x20 DUP4 DUP6 SUB SLT ISZERO PUSH2 0xF14 JUMPI PUSH0 DUP1 REVERT JUMPDEST DUP3 CALLDATALOAD PUSH8 0xFFFFFFFFFFFFFFFF DUP2 GT ISZERO PUSH2 0xF2A JUMPI PUSH0 DUP1 REVERT JUMPDEST PUSH2 0xF36 DUP6 DUP3 DUP7 ADD PUSH2 0xD65 JUMP JUMPDEST SWAP1 SWAP7 SWAP1 SWAP6 POP SWAP4 POP POP POP POP JUMP JUMPDEST PUSH0 DUP2 MLOAD DUP1 DUP5 MSTORE PUSH1 0x20 DUP1 DUP6 ADD SWAP5 POP DUP5 DUP3 PUSH1 0x5 SHL DUP7 ADD DUP3 DUP7 ADD PUSH0 DUP1 JUMPDEST DUP7 DUP2 LT ISZERO PUSH2 0xFB4 JUMPI DUP5 DUP5 SUB DUP11 MSTORE DUP3 MLOAD DUP1 MLOAD DUP1 DUP7 MSTORE DUP4 JUMPDEST DUP2 DUP2 LT ISZERO PUSH2 0xF8D JUMPI DUP3 DUP2 ADD DUP10 ADD MLOAD DUP8 DUP3 ADD DUP11 ADD MSTORE DUP9 ADD PUSH2 0xF72 JUMP JUMPDEST POP DUP6 DUP2 ADD DUP9 ADD DUP5 SWAP1 MSTORE SWAP11 DUP8 ADD SWAP11 PUSH1 0x1F ADD PUSH1 0x1F NOT AND SWAP1 SWAP5 ADD DUP7 ADD SWAP4 POP SWAP2 DUP6 ADD SWAP2 PUSH1 0x1 ADD PUSH2 0xF5C JUMP JUMPDEST POP SWAP2 SWAP9 SWAP8 POP POP POP POP POP POP POP POP JUMP JUMPDEST PUSH1 0x60 DUP2 MSTORE PUSH0 PUSH2 0xFD4 PUSH1 0x60 DUP4 ADD DUP7 PUSH2 0xF42 JUMP JUMPDEST DUP3 DUP2 SUB PUSH1 0x20 DUP5 DUP2 ADD SWAP2 SWAP1 SWAP2 MSTORE DUP6 MLOAD DUP1 DUP4 MSTORE DUP7 DUP3 ADD SWAP3 DUP3 ADD SWAP1 PUSH0 JUMPDEST DUP2 DUP2 LT ISZERO PUSH2 0x100A JUMPI DUP5 MLOAD DUP4 MSTORE SWAP4 DUP4 ADD SWAP4 SWAP2 DUP4 ADD SWAP2 PUSH1 0x1 ADD PUSH2 0xFEE JUMP JUMPDEST POP POP DUP5 DUP2 SUB PUSH1 0x40 DUP7 ADD MSTORE PUSH2 0x101E DUP2 DUP8 PUSH2 0xF42 JUMP JUMPDEST SWAP9 SWAP8 POP POP POP POP POP POP POP POP JUMP JUMPDEST PUSH4 0x4E487B71 PUSH1 0xE0 SHL PUSH0 MSTORE PUSH1 0x41 PUSH1 0x4 MSTORE PUSH1 0x24 PUSH0 REVERT JUMPDEST PUSH0 PUSH1 0x20 DUP3 DUP5 SUB SLT ISZERO PUSH2 0x104E JUMPI PUSH0 DUP1 REVERT JUMPDEST DUP2 CALLDATALOAD PUSH8 0xFFFFFFFFFFFFFFFF DUP1 DUP3 GT ISZERO PUSH2 0x1065 JUMPI PUSH0 DUP1 REVERT JUMPDEST DUP2 DUP5 ADD SWAP2 POP DUP5 PUSH1 0x1F DUP4 ADD SLT PUSH2 0x1078 JUMPI PUSH0 DUP1 REVERT JUMPDEST DUP2 CALLDATALOAD DUP2 DUP2 GT ISZERO PUSH2 0x108A JUMPI PUSH2 0x108A PUSH2 0x102A JUMP JUMPDEST PUSH1 0x40 MLOAD PUSH1 0x1F DUP3 ADD PUSH1 0x1F NOT SWAP1 DUP2 AND PUSH1 0x3F ADD AND DUP2 ADD SWAP1 DUP4 DUP3 GT DUP2 DUP4 LT OR ISZERO PUSH2 0x10B2 JUMPI PUSH2 0x10B2 PUSH2 0x102A JUMP JUMPDEST DUP2 PUSH1 0x40 MSTORE DUP3 DUP2 MSTORE DUP8 PUSH1 0x20 DUP5 DUP8 ADD ADD GT ISZERO PUSH2 0x10CA JUMPI PUSH0 DUP1 REVERT JUMPDEST DUP3 PUSH1 0x20 DUP7 ADD PUSH1 0x20 DUP4 ADD CALLDATACOPY PUSH0 SWAP3 DUP2 ADD PUSH1 0x20 ADD SWAP3 SWAP1 SWAP3 MSTORE POP SWAP6 SWAP5 POP POP POP POP POP JUMP JUMPDEST PUSH0 DUP1 PUSH0 DUP1 PUSH0 DUP1 PUSH1 0x80 DUP8 DUP10 SUB SLT ISZERO PUSH2 0x10FE JUMPI PUSH0 DUP1 REVERT JUMPDEST DUP7 CALLDATALOAD PUSH8 0xFFFFFFFFFFFFFFFF DUP1 DUP3 GT ISZERO PUSH2 0x1115 JUMPI PUSH0 DUP1 REVERT JUMPDEST PUSH2 0x1121 DUP11 DUP4 DUP12 ADD PUSH2 0xD65 JUMP JUMPDEST SWAP1 SWAP9 POP SWAP7 POP PUSH1 0x20 DUP10 ADD CALLDATALOAD SWAP6 POP PUSH1 0x40 DUP10 ADD CALLDATALOAD SWAP2 POP DUP1 DUP3 GT ISZERO PUSH2 0x1140 JUMPI PUSH0 DUP1 REVERT JUMPDEST POP PUSH2 0x114D DUP10 DUP3 DUP11 ADD PUSH2 0xDAA JUMP JUMPDEST SWAP8 SWAP11 SWAP7 SWAP10 POP SWAP5 SWAP8 SWAP5 SWAP7 SWAP6 PUSH1 0x60 SWAP1 SWAP6 ADD CALLDATALOAD SWAP5 SWAP4 POP POP POP POP JUMP JUMPDEST DUP2 DUP4 DUP3 CALLDATACOPY PUSH0 SWAP2 ADD SWAP1 DUP2 MSTORE SWAP2 SWAP1 POP JUMP JUMPDEST PUSH4 0x4E487B71 PUSH1 0xE0 SHL PUSH0 MSTORE PUSH1 0x32 PUSH1 0x4 MSTORE PUSH1 0x24 PUSH0 REVERT JUMPDEST PUSH0 DUP1 DUP4 CALLDATALOAD PUSH1 0x1E NOT DUP5 CALLDATASIZE SUB ADD DUP2 SLT PUSH2 0x119D JUMPI PUSH0 DUP1 REVERT JUMPDEST DUP4 ADD DUP1 CALLDATALOAD SWAP2 POP PUSH8 0xFFFFFFFFFFFFFFFF DUP3 GT ISZERO PUSH2 0x11B7 JUMPI PUSH0 DUP1 REVERT JUMPDEST PUSH1 0x20 ADD SWAP2 POP CALLDATASIZE DUP2 SWAP1 SUB DUP3 SGT ISZERO PUSH2 0xDA3 JUMPI PUSH0 DUP1 REVERT JUMPDEST PUSH1 0x1 DUP2 DUP2 SHR SWAP1 DUP3 AND DUP1 PUSH2 0x11DF JUMPI PUSH1 0x7F DUP3 AND SWAP2 POP JUMPDEST PUSH1 0x20 DUP3 LT DUP2 SUB PUSH2 0x11FD JUMPI PUSH4 0x4E487B71 PUSH1 0xE0 SHL PUSH0 MSTORE PUSH1 0x22 PUSH1 0x4 MSTORE PUSH1 0x24 PUSH0 REVERT JUMPDEST POP SWAP2 SWAP1 POP JUMP JUMPDEST PUSH1 0x1F DUP3 GT ISZERO PUSH2 0x124C JUMPI PUSH0 DUP2 DUP2 MSTORE PUSH1 0x20 DUP2 KECCAK256 PUSH1 0x1F DUP6 ADD PUSH1 0x5 SHR DUP2 ADD PUSH1 0x20 DUP7 LT ISZERO PUSH2 0x1229 JUMPI POP DUP1 JUMPDEST PUSH1 0x1F DUP6 ADD PUSH1 0x5 SHR DUP3 ADD SWAP2 POP JUMPDEST DUP2 DUP2 LT ISZERO PUSH2 0x1248 JUMPI DUP3 DUP2 SSTORE PUSH1 0x1 ADD PUSH2 0x1235 JUMP JUMPDEST POP POP POP JUMPDEST POP POP POP JUMP JUMPDEST DUP2 MLOAD PUSH8 0xFFFFFFFFFFFFFFFF DUP2 GT ISZERO PUSH2 0x126B JUMPI PUSH2 0x126B PUSH2 0x102A JUMP JUMPDEST PUSH2 0x127F DUP2 PUSH2 0x1279 DUP5 SLOAD PUSH2 0x11CB JUMP JUMPDEST DUP5 PUSH2 0x1203 JUMP JUMPDEST PUSH1 0x20 DUP1 PUSH1 0x1F DUP4 GT PUSH1 0x1 DUP2 EQ PUSH2 0x12B2 JUMPI PUSH0 DUP5 ISZERO PUSH2 0x129B JUMPI POP DUP6 DUP4 ADD MLOAD JUMPDEST PUSH0 NOT PUSH1 0x3 DUP7 SWAP1 SHL SHR NOT AND PUSH1 0x1 DUP6 SWAP1 SHL OR DUP6 SSTORE PUSH2 0x1248 JUMP JUMPDEST PUSH0 DUP6 DUP2 MSTORE PUSH1 0x20 DUP2 KECCAK256 PUSH1 0x1F NOT DUP7 AND SWAP2 JUMPDEST DUP3 DUP2 LT ISZERO PUSH2 0x12E0 JUMPI DUP9 DUP7 ADD MLOAD DUP3 SSTORE SWAP5 DUP5 ADD SWAP5 PUSH1 0x1 SWAP1 SWAP2 ADD SWAP1 DUP5 ADD PUSH2 0x12C1 JUMP JUMPDEST POP DUP6 DUP3 LT ISZERO PUSH2 0x12FD JUMPI DUP8 DUP6 ADD MLOAD PUSH0 NOT PUSH1 0x3 DUP9 SWAP1 SHL PUSH1 0xF8 AND SHR NOT AND DUP2 SSTORE JUMPDEST POP POP POP POP POP PUSH1 0x1 SWAP1 DUP2 SHL ADD SWAP1 SSTORE POP JUMP JUMPDEST PUSH4 0x4E487B71 PUSH1 0xE0 SHL PUSH0 MSTORE PUSH1 0x11 PUSH1 0x4 MSTORE PUSH1 0x24 PUSH0 REVERT JUMPDEST PUSH0 PUSH1 0x1 DUP3 ADD PUSH2 0x1332 JUMPI PUSH2 0x1332 PUSH2 0x130D JUMP JUMPDEST POP PUSH1 0x1 ADD SWAP1 JUMP JUMPDEST DUP1 DUP3 ADD DUP1 DUP3 GT ISZERO PUSH2 0x134C JUMPI PUSH2 0x134C PUSH2 0x130D JUMP JUMPDEST SWAP3 SWAP2 POP POP JUMP JUMPDEST PUSH4 0x4E487B71 PUSH1 0xE0 SHL PUSH0 MSTORE PUSH1 0x12 PUSH1 0x4 MSTORE PUSH1 0x24 PUSH0 REVERT JUMPDEST PUSH0 DUP3 PUSH2 0x1374 JUMPI PUSH2 0x1374 PUSH2 0x1352 JUMP JUMPDEST POP MOD SWAP1 JUMP JUMPDEST PUSH0 DUP3 PUSH2 0x1387 JUMPI PUSH2 0x1387 PUSH2 0x1352 JUMP JUMPDEST POP DIV SWAP1 JUMP INVALID LOG2 PUSH5 0x6970667358 0x22 SLT KECCAK256 0xC9 0x21 EXTCODECOPY CALLCODE GT 0x4C ORIGIN DUP8 0xD5 0xAA 0x4C STATICCALL 0xFB MSTORE PUSH11 0x6354E0F3F34BF5B5AC641C COINBASE DUP1 0x4D 0xAA MSTORE8 0x24 PUSH5 0x736F6C6343 STOP ADDMOD EQ STOP CALLER "},"methodIdentifiers":{"batchRoots(string)":"b506acf9","batches(string)":"7ef1446a","commitBatch(string,bytes32,uint256,string[],uint256[],string[])":"4560b99b","getBatch(string)":"f9ca4274","getStudentCredentials(string)":"7519322b","revokeCredential(bytes32,string)":"493814b5","revokedCredentials(bytes32)":"249b92a0","totalBatches()":"69ff6abb","totalCredentials()":"1513d62b","universityAddress()":"fdd7e0b9","verifyCredential(string,bytes32,bytes32[],uint256)":"bfbdad27"}}}}}