{
  "_format": "hh3-artifact-1",
  "contractName": "CredentialVerifier",
  "sourceName": "contracts/CredentialVerifier.sol",
  "abi": [
    {
      "inputs": [
        {
          "internalType": "address",
          "name": "_universityAddress",
          "type": "address"
        }
      ],
      "stateMutability": "nonpayable",
      "type": "constructor"
    },
    {
      "anonymous": false,
      "inputs": [
        {
          "indexed": true,
          "internalType": "bytes32",
          "name": "credentialHash",
          "type": "bytes32"
        },
        {
          "indexed": true,
          "internalType": "string",
          "name": "studentDid",
          "type": "string"
        },
        {
          "indexed": true,
          "internalType": "address",
          "name": "issuedBy",
          "type": "address"
        },
        {
          "indexed": false,
          "internalType": "string",
          "name": "ipfsCid",
          "type": "string"
        },
        {
          "indexed": false,
          "internalType": "uint256",
          "name": "issuedAt",
          "type": "uint256"
        }
      ],
      "name": "CredentialIssued",
      "type": "event"
    },
    {
      "anonymous": false,
      "inputs": [
        {
          "indexed": true,
          "internalType": "bytes32",
          "name": "credentialHash",
          "type": "bytes32"
        },
        {
          "indexed": true,
          "internalType": "address",
          "name": "revokedBy",
          "type": "address"
        },
        {
          "indexed": false,
          "internalType": "uint256",
          "name": "revokedAt",
          "type": "uint256"
        }
      ],
      "name": "CredentialRevoked",
      "type": "event"
    },
    {
      "inputs": [
        {
          "internalType": "bytes32",
          "name": "credentialHash",
          "type": "bytes32"
        }
      ],
      "name": "getCredential",
      "outputs": [
        {
          "internalType": "string",
          "name": "studentDid",
          "type": "string"
        },
        {
          "internalType": "string",
          "name": "ipfsCid",
          "type": "string"
        },
        {
          "internalType": "address",
          "name": "issuedBy",
          "type": "address"
        },
        {
          "internalType": "uint256",
          "name": "issuedAt",
          "type": "uint256"
        },
        {
          "internalType": "bool",
          "name": "isRevoked",
          "type": "bool"
        },
        {
          "internalType": "bool",
          "name": "exists",
          "type": "bool"
        }
      ],
      "stateMutability": "view",
      "type": "function"
    },
    {
      "inputs": [
        {
          "internalType": "string",
          "name": "studentDid",
          "type": "string"
        }
      ],
      "name": "getStudentCredentials",
      "outputs": [
        {
          "internalType": "bytes32[]",
          "name": "",
          "type": "bytes32[]"
        }
      ],
      "stateMutability": "view",
      "type": "function"
    },
    {
      "inputs": [
        {
          "internalType": "string",
          "name": "studentDid",
          "type": "string"
        },
        {
          "internalType": "bytes32",
          "name": "credentialHash",
          "type": "bytes32"
        },
        {
          "internalType": "string",
          "name": "ipfsCid",
          "type": "string"
        }
      ],
      "name": "issueCredential",
      "outputs": [],
      "stateMutability": "nonpayable",
      "type": "function"
    },
    {
      "inputs": [
        {
          "internalType": "bytes32",
          "name": "credentialHash",
          "type": "bytes32"
        }
      ],
      "name": "revokeCredential",
      "outputs": [],
      "stateMutability": "nonpayable",
      "type": "function"
    },
    {
      "inputs": [],
      "name": "totalCredentials",
      "outputs": [
        {
          "internalType": "uint256",
          "name": "",
          "type": "uint256"
        }
      ],
      "stateMutability": "view",
      "type": "function"
    },
    {
      "inputs": [],
      "name": "universityAddress",
      "outputs": [
        {
          "internalType": "address",
          "name": "",
          "type": "address"
        }
      ],
      "stateMutability": "view",
      "type": "function"
    },
    {
      "inputs": [
        {
          "internalType": "bytes32",
          "name": "credentialHash",
          "type": "bytes32"
        }
      ],
      "name": "verifyCredential",
      "outputs": [
        {
          "internalType": "bool",
          "name": "isValid",
          "type": "bool"
        },
        {
          "internalType": "bool",
          "name": "isRevoked",
          "type": "bool"
        },
        {
          "internalType": "string",
          "name": "ipfsCid",
          "type": "string"
        },
        {
          "internalType": "uint256",
          "name": "issuedAt",
          "type": "uint256"
        }
      ],
      "stateMutability": "view",
      "type": "function"
    }
  ],
  "bytecode": "0x60a060405234801561000f575f80fd5b50604051610e3e380380610e3e83398101604081905261002e916100a3565b6001600160a01b0381166100925760405162461bcd60e51b815260206004820152602160248201527f556e697665727369747920616464726573732063616e6e6f74206265207a65726044820152606f60f81b606482015260840160405180910390fd5b6001600160a01b03166080526100d0565b5f602082840312156100b3575f80fd5b81516001600160a01b03811681146100c9575f80fd5b9392505050565b608051610d486100f65f395f818161012f015281816102de01526104510152610d485ff3fe608060405234801561000f575f80fd5b506004361061007a575f3560e01c8063ca6eec7811610058578063ca6eec78146100dd578063d09080da146100f2578063d1be488314610105578063fdd7e0b91461012a575f80fd5b80631513d62b1461007e5780634dbf87cc1461009a5780637519322b146100bd575b5f80fd5b61008760025481565b6040519081526020015b60405180910390f35b6100ad6100a83660046108ea565b610169565b6040516100919493929190610944565b6100d06100cb3660046109bc565b610262565b60405161009191906109fb565b6100f06100eb3660046108ea565b6102d3565b005b6100f0610100366004610a3e565b610446565b6101186101133660046108ea565b610774565b60405161009196959493929190610ab2565b6101517f000000000000000000000000000000000000000000000000000000000000000081565b6040516001600160a01b039091168152602001610091565b5f81815260208190526040812060058101548291606091839190610100900460ff166101ad57505060408051602081019091525f808252935083925090508161025b565b6005810154600482015460028301805460ff90931680159390929082906101d390610b07565b80601f01602080910402602001604051908101604052809291908181526020018280546101ff90610b07565b801561024a5780601f106102215761010080835404028352916020019161024a565b820191905f5260205f20905b81548152906001019060200180831161022d57829003601f168201915b505050505091509450945094509450505b9193509193565b606060018383604051610276929190610b3f565b90815260408051918290036020908101832080548083028501830190935282845291908301828280156102c657602002820191905f5260205f20905b8154815260200190600101908083116102b2575b5050505050905092915050565b336001600160a01b037f000000000000000000000000000000000000000000000000000000000000000016146103245760405162461bcd60e51b815260040161031b90610b4e565b60405180910390fd5b5f81815260208190526040902060050154610100900460ff166103895760405162461bcd60e51b815260206004820152601960248201527f43726564656e7469616c20646f6573206e6f7420657869737400000000000000604482015260640161031b565b5f8181526020819052604090206005015460ff16156103ea5760405162461bcd60e51b815260206004820152601a60248201527f43726564656e7469616c20616c7265616479207265766f6b6564000000000000604482015260640161031b565b5f8181526020819052604090819020600501805460ff1916600117905551339082907f80d4746828447d65eceb938c7f9d85fbeb232fe7819d5209ed452b3940f8904b9061043b9042815260200190565b60405180910390a350565b336001600160a01b037f0000000000000000000000000000000000000000000000000000000000000000161461048e5760405162461bcd60e51b815260040161031b90610b4e565b5f83815260208190526040902060050154610100900460ff16156104f45760405162461bcd60e51b815260206004820152601960248201527f43726564656e7469616c20616c72656164792069737375656400000000000000604482015260640161031b565b836105415760405162461bcd60e51b815260206004820152601b60248201527f53747564656e74204449442063616e6e6f7420626520656d7074790000000000604482015260640161031b565b8261058e5760405162461bcd60e51b815260206004820152601e60248201527f43726564656e7469616c20686173682063616e6e6f74206265207a65726f0000604482015260640161031b565b6040518060e0016040528086868080601f0160208091040260200160405190810160405280939291908181526020018383808284375f92019190915250505090825250602080820186905260408051601f860183900483028101830182528581529201919085908590819084018382808284375f920182905250938552505033602080850191909152426040808601919091526060850184905260016080909501949094528783528290525020815181906106499082610bfb565b5060208201516001820155604082015160028201906106689082610bfb565b5060608201516003820180546001600160a01b039092166001600160a01b03199092169190911790556080820151600482015560a08201516005909101805460c09093015115156101000261ff00199215159290921661ffff19909316929092171790556040516001906106df9087908790610b3f565b9081526040516020918190038201902080546001810182555f918252918120909101849055600280549161071283610cb7565b909155505060405133906107299087908790610b3f565b6040518091039020847f1b8d4e504189a8e719a37b74005be3e0f45d25ad396ae91da9cb94e4d0a6151985854260405161076593929190610cdb565b60405180910390a45050505050565b5f818152602081905260408120600381015460048201546005830154835460609586959094859485948594849360028501936001600160a01b0390911692909160ff808316926101009004169086906107cc90610b07565b80601f01602080910402602001604051908101604052809291908181526020018280546107f890610b07565b80156108435780601f1061081a57610100808354040283529160200191610843565b820191905f5260205f20905b81548152906001019060200180831161082657829003601f168201915b5050505050955084805461085690610b07565b80601f016020809104026020016040519081016040528092919081815260200182805461088290610b07565b80156108cd5780601f106108a4576101008083540402835291602001916108cd565b820191905f5260205f20905b8154815290600101906020018083116108b057829003601f168201915b505050505094509650965096509650965096505091939550919395565b5f602082840312156108fa575f80fd5b5035919050565b5f81518084525f5b8181101561092557602081850181015186830182015201610909565b505f602082860101526020601f19601f83011685010191505092915050565b84151581528315156020820152608060408201525f6109666080830185610901565b905082606083015295945050505050565b5f8083601f840112610987575f80fd5b50813567ffffffffffffffff81111561099e575f80fd5b6020830191508360208285010111156109b5575f80fd5b9250929050565b5f80602083850312156109cd575f80fd5b823567ffffffffffffffff8111156109e3575f80fd5b6109ef85828601610977565b90969095509350505050565b602080825282518282018190525f9190848201906040850190845b81811015610a3257835183529284019291840191600101610a16565b50909695505050505050565b5f805f805f60608688031215610a52575f80fd5b853567ffffffffffffffff80821115610a69575f80fd5b610a7589838a01610977565b9097509550602088013594506040880135915080821115610a94575f80fd5b50610aa188828901610977565b969995985093965092949392505050565b60c081525f610ac460c0830189610901565b8281036020840152610ad68189610901565b6001600160a01b03979097166040840152505060608101939093529015156080830152151560a09091015292915050565b600181811c90821680610b1b57607f821691505b602082108103610b3957634e487b7160e01b5f52602260045260245ffd5b50919050565b818382375f9101908152919050565b6020808252602b908201527f4f6e6c792074686520756e69766572736974792063616e20706572666f726d2060408201526a3a3434b99030b1ba34b7b760a91b606082015260800190565b634e487b7160e01b5f52604160045260245ffd5b601f821115610bf6575f81815260208120601f850160051c81016020861015610bd35750805b601f850160051c820191505b81811015610bf257828155600101610bdf565b5050505b505050565b815167ffffffffffffffff811115610c1557610c15610b99565b610c2981610c238454610b07565b84610bad565b602080601f831160018114610c5c575f8415610c455750858301515b5f19600386901b1c1916600185901b178555610bf2565b5f85815260208120601f198616915b82811015610c8a57888601518255948401946001909101908401610c6b565b5085821015610ca757878501515f19600388901b60f8161c191681555b5050505050600190811b01905550565b5f60018201610cd457634e487b7160e01b5f52601160045260245ffd5b5060010190565b60408152826040820152828460608301375f606084830101525f6060601f19601f860116830101905082602083015294935050505056fea264697066735822122054d370a0f362ad84b3d6769fca9140e65f63098eb288f4425bdc44255e7bd86d64736f6c63430008140033",
  "linkReferences": {},
  "deployedLinkReferences": {},
  "immutableReferences": {
    "19": [
      {
        "length": 32,
        "start": 303
      },
      {
        "length": 32,
        "start": 734
      },
      {
        "length": 32,
        "start": 1105
      }
    ]
  },
  "inputSourceName": "project/contracts/CredentialVerifier.sol",
  "buildInfoId": "solc-0_8_20-bbfbb593c00e7168eb29f08726bd04bae15f95b1"
}