{
  "_format": "hh-sol-artifact-1",
  "contractName": "CredentialVerifier",
  "sourceName": "contracts/MerkleCredentialVerifier.sol",
  "abi": [
    {
      "inputs": [],
      "stateMutability": "nonpayable",
      "type": "constructor"
    },
    {
      "anonymous": false,
      "inputs": [
        {
          "indexed": true,
          "internalType": "string",
          "name": "batchId",
          "type": "string"
        },
        {
          "indexed": false,
          "internalType": "bytes32",
          "name": "merkleRoot",
          "type": "bytes32"
        },
        {
          "indexed": false,
          "internalType": "uint256",
          "name": "credentialCount",
          "type": "uint256"
        },
        {
          "indexed": false,
          "internalType": "uint256",
          "name": "committedAt",
          "type": "uint256"
        }
      ],
      "name": "BatchCommitted",
      "type": "event"
    },
    {
      "anonymous": false,
      "inputs": [
        {
          "indexed": true,
          "internalType": "bytes32",
          "name": "credentialHash",
          "type": "bytes32"
        },
        {
          "indexed": true,
          "internalType": "string",
          "name": "batchId",
          "type": "string"
        },
        {
          "indexed": false,
          "internalType": "uint256",
          "name": "revokedAt",
          "type": "uint256"
        }
      ],
      "name": "CredentialRevoked",
      "type": "event"
    },
    {
      "inputs": [
        {
          "internalType": "string",
          "name": "batchId",
          "type": "string"
        },
        {
          "internalType": "bytes32",
          "name": "merkleRoot",
          "type": "bytes32"
        },
        {
          "internalType": "uint256",
          "name": "credentialCount",
          "type": "uint256"
        },
        {
          "internalType": "string[]",
          "name": "studentDids",
          "type": "string[]"
        },
        {
          "internalType": "uint256[]",
          "name": "leafIndices",
          "type": "uint256[]"
        },
        {
          "internalType": "string[]",
          "name": "ipfsCids",
          "type": "string[]"
        }
      ],
      "name": "commitBatch",
      "outputs": [],
      "stateMutability": "nonpayable",
      "type": "function"
    },
    {
      "inputs": [
        {
          "internalType": "string",
          "name": "batchId",
          "type": "string"
        }
      ],
      "name": "getBatch",
      "outputs": [
        {
          "internalType": "bytes32",
          "name": "merkleRoot",
          "type": "bytes32"
        },
        {
          "internalType": "uint256",
          "name": "credentialCount",
          "type": "uint256"
        },
        {
          "internalType": "uint256",
          "name": "committedAt",
          "type": "uint256"
        },
        {
          "internalType": "bool",
          "name": "isRevoked",
          "type": "bool"
        },
        {
          "internalType": "bool",
          "name": "exists",
          "type": "bool"
        }
      ],
      "stateMutability": "view",
      "type": "function"
    },
    {
      "inputs": [
        {
          "internalType": "string",
          "name": "studentDid",
          "type": "string"
        }
      ],
      "name": "getStudentCredentials",
      "outputs": [
        {
          "internalType": "string[]",
          "name": "batchIds",
          "type": "string[]"
        },
        {
          "internalType": "uint256[]",
          "name": "leafIndices",
          "type": "uint256[]"
        },
        {
          "internalType": "string[]",
          "name": "ipfsCids",
          "type": "string[]"
        }
      ],
      "stateMutability": "view",
      "type": "function"
    },
    {
      "inputs": [
        {
          "internalType": "bytes32",
          "name": "credentialHash",
          "type": "bytes32"
        }
      ],
      "name": "isCredentialRevoked",
      "outputs": [
        {
          "internalType": "bool",
          "name": "",
          "type": "bool"
        }
      ],
      "stateMutability": "view",
      "type": "function"
    },
    {
      "inputs": [
        {
          "internalType": "bytes32",
          "name": "credentialHash",
          "type": "bytes32"
        },
        {
          "internalType": "string",
          "name": "batchId",
          "type": "string"
        }
      ],
      "name": "revokeCredential",
      "outputs": [],
      "stateMutability": "nonpayable",
      "type": "function"
    },
    {
      "inputs": [],
      "name": "university",
      "outputs": [
        {
          "internalType": "address",
          "name": "",
          "type": "address"
        }
      ],
      "stateMutability": "view",
      "type": "function"
    },
    {
      "inputs": [
        {
          "internalType": "string",
          "name": "batchId",
          "type": "string"
        },
        {
          "internalType": "bytes32",
          "name": "credentialHash",
          "type": "bytes32"
        },
        {
          "internalType": "bytes32[]",
          "name": "proof",
          "type": "bytes32[]"
        },
        {
          "internalType": "uint256",
          "name": "leafIndex",
          "type": "uint256"
        }
      ],
      "name": "verifyCredential",
      "outputs": [
        {
          "internalType": "bool",
          "name": "isValid",
          "type": "bool"
        },
        {
          "internalType": "bool",
          "name": "isRevoked",
          "type": "bool"
        },
        {
          "internalType": "uint256",
          "name": "committedAt",
          "type": "uint256"
        }
      ],
      "stateMutability": "view",
      "type": "function"
    }
  ],
  "bytecode": "0x608060405234801561001057600080fd5b50600080546001600160a01b031916331790556112ef806100326000396000f3fe608060405234801561001057600080fd5b506004361061007c5760003560e01c80637519322b1161005b5780637519322b146100e1578063ae12894e14610103578063bfbdad271461012e578063f9ca42741461015e57600080fd5b8062cf8668146100815780634560b99b146100b9578063493814b5146100ce575b600080fd5b6100a461008f366004610c44565b60009081526004602052604090205460ff1690565b60405190151581526020015b60405180910390f35b6100cc6100c7366004610ceb565b61019d565b005b6100cc6100dc366004610dc5565b610605565b6100f46100ef366004610e11565b6107a2565b6040516100b093929190610edb565b600054610116906001600160a01b031681565b6040516001600160a01b0390911681526020016100b0565b61014161013c366004610f45565b610aae565b6040805193151584529115156020840152908201526060016100b0565b61017161016c366004610e11565b610be9565b60408051958652602086019490945292840191909152151560608301521515608082015260a0016100b0565b6000546001600160a01b031633146101fc5760405162461bcd60e51b815260206004820152601d60248201527f4f6e6c7920756e69766572736974792063616e2063616c6c207468697300000060448201526064015b60405180910390fd5b60018a8a60405161020e929190610fc7565b9081526040519081900360200190206003015460ff61010090910416156102775760405162461bcd60e51b815260206004820152601760248201527f426174636820616c726561647920636f6d6d697474656400000000000000000060448201526064016101f3565b8487146102c65760405162461bcd60e51b815260206004820152601b60248201527f73747564656e7444696473206c656e677468206d69736d61746368000000000060448201526064016101f3565b8287146103155760405162461bcd60e51b815260206004820152601b60248201527f6c656166496e6469636573206c656e677468206d69736d61746368000000000060448201526064016101f3565b8087146103645760405162461bcd60e51b815260206004820152601860248201527f6970667343696473206c656e677468206d69736d61746368000000000000000060448201526064016101f3565b600087116103a25760405162461bcd60e51b815260206004820152600b60248201526a08adae0e8f240c4c2e8c6d60ab1b60448201526064016101f3565b6040518060a001604052808981526020018881526020014281526020016000151581526020016001151581525060018b8b6040516103e1929190610fc7565b9081526040805191829003602090810190922083518155918301516001830155820151600282015560608201516003909101805460809093015115156101000261ff00199215159290921661ffff199093169290921717905560005b878110156105a057600287878381811061045957610459610fd7565b905060200281019061046b9190610fed565b604051610479929190610fc7565b908152602001604051809103902060405180606001604052808d8d8080601f0160208091040260200160405190810160405280939291908181526020018383808284376000920191909152505050908252506020018787858181106104e0576104e0610fd7565b9050602002013581526020018585858181106104fe576104fe610fd7565b90506020028101906105109190610fed565b8080601f016020809104026020016040519081016040528093929190818152602001838380828437600092018290525093909452505083546001810185559381526020902082519293600302019182915061056b90826110d3565b50602082015160018201556040820151600282019061058a90826110d3565b505050808061059890611193565b91505061043d565b5089896040516105b1929190610fc7565b604080519182900382208a8352602083018a90524283830152905190917f09fe1944793ed6b79cf24c4bf20cbaee398190b2b0966f37d72753ce4221a80e919081900360600190a250505050505050505050565b6000546001600160a01b0316331461065f5760405162461bcd60e51b815260206004820152601d60248201527f4f6e6c7920756e69766572736974792063616e2063616c6c207468697300000060448201526064016101f3565b60018282604051610671929190610fc7565b9081526040519081900360200190206003015460ff610100909104166106cb5760405162461bcd60e51b815260206004820152600f60248201526e10985d18da081b9bdd08199bdd5b99608a1b60448201526064016101f3565b60008381526004602052604090205460ff161561071c5760405162461bcd60e51b815260206004820152600f60248201526e105b1c9958591e481c995d9bdad959608a1b60448201526064016101f3565b6000838152600460209081526040808320805460ff191660011790556003909152902061074a8284836111ba565b50818160405161075b929190610fc7565b6040518091039020837fc33ff9944a652db4ef83cbd6e3ba64d7a75fc0860e2322e66a587a68109487464260405161079591815260200190565b60405180910390a3505050565b60608060606000600286866040516107bb929190610fc7565b90815260405190819003602001902080549091508067ffffffffffffffff8111156107e8576107e8611034565b60405190808252806020026020018201604052801561081b57816020015b60608152602001906001900390816108065790505b5094508067ffffffffffffffff81111561083757610837611034565b604051908082528060200260200182016040528015610860578160200160208202803683370190505b5093508067ffffffffffffffff81111561087c5761087c611034565b6040519080825280602002602001820160405280156108af57816020015b606081526020019060019003908161089a5790505b50925060005b81811015610aa4578281815481106108cf576108cf610fd7565b906000526020600020906003020160000180546108eb9061104a565b80601f01602080910402602001604051908101604052809291908181526020018280546109179061104a565b80156109645780601f1061093957610100808354040283529160200191610964565b820191906000526020600020905b81548152906001019060200180831161094757829003601f168201915b505050505086828151811061097b5761097b610fd7565b602002602001018190525082818154811061099857610998610fd7565b9060005260206000209060030201600101548582815181106109bc576109bc610fd7565b6020026020010181815250508281815481106109da576109da610fd7565b906000526020600020906003020160020180546109f69061104a565b80601f0160208091040260200160405190810160405280929190818152602001828054610a229061104a565b8015610a6f5780601f10610a4457610100808354040283529160200191610a6f565b820191906000526020600020905b815481529060010190602001808311610a5257829003601f168201915b5050505050848281518110610a8657610a86610fd7565b60200260200101819052508080610a9c90611193565b9150506108b5565b5050509250925092565b60008060008060018a8a604051610ac6929190610fc7565b908152604051908190036020019020600381015490915060ff61010090910416610afb57600080600093509350935050610bdd565b600088815260046020526040812054600283015460ff90911694509250889086905b88811015610bd55760008a8a83818110610b3957610b39610fd7565b905060200201359050600283610b4f9190611291565b600003610b87576040805160208101869052908101829052606001604051602081830303815290604052805190602001209350610bb4565b60408051602081018390529081018590526060016040516020818303038152906040528051906020012093505b610bbf6002846112a5565b9250508080610bcd90611193565b915050610b1d565b505090541492505b96509650969350505050565b60008060008060008060018888604051610c04929190610fc7565b908152604051908190036020019020805460018201546002830154600390930154919b909a5091985060ff80821698506101009091041695509350505050565b600060208284031215610c5657600080fd5b5035919050565b60008083601f840112610c6f57600080fd5b50813567ffffffffffffffff811115610c8757600080fd5b602083019150836020828501011115610c9f57600080fd5b9250929050565b60008083601f840112610cb857600080fd5b50813567ffffffffffffffff811115610cd057600080fd5b6020830191508360208260051b8501011115610c9f57600080fd5b60008060008060008060008060008060c08b8d031215610d0a57600080fd5b8a3567ffffffffffffffff80821115610d2257600080fd5b610d2e8e838f01610c5d565b909c509a5060208d0135995060408d0135985060608d0135915080821115610d5557600080fd5b610d618e838f01610ca6565b909850965060808d0135915080821115610d7a57600080fd5b610d868e838f01610ca6565b909650945060a08d0135915080821115610d9f57600080fd5b50610dac8d828e01610ca6565b915080935050809150509295989b9194979a5092959850565b600080600060408486031215610dda57600080fd5b83359250602084013567ffffffffffffffff811115610df857600080fd5b610e0486828701610c5d565b9497909650939450505050565b60008060208385031215610e2457600080fd5b823567ffffffffffffffff811115610e3b57600080fd5b610e4785828601610c5d565b90969095509350505050565b600082825180855260208086019550808260051b8401018186016000805b85811015610ecd57601f1980888603018b5283518051808752845b81811015610ea7578281018901518882018a01528801610e8c565b5086810188018590529b87019b601f019091169094018501935091840191600101610e71565b509198975050505050505050565b606081526000610eee6060830186610e53565b82810360208481019190915285518083528682019282019060005b81811015610f2557845183529383019391830191600101610f09565b50508481036040860152610f398187610e53565b98975050505050505050565b60008060008060008060808789031215610f5e57600080fd5b863567ffffffffffffffff80821115610f7657600080fd5b610f828a838b01610c5d565b9098509650602089013595506040890135915080821115610fa257600080fd5b50610faf89828a01610ca6565b979a9699509497949695606090950135949350505050565b8183823760009101908152919050565b634e487b7160e01b600052603260045260246000fd5b6000808335601e1984360301811261100457600080fd5b83018035915067ffffffffffffffff82111561101f57600080fd5b602001915036819003821315610c9f57600080fd5b634e487b7160e01b600052604160045260246000fd5b600181811c9082168061105e57607f821691505b60208210810361107e57634e487b7160e01b600052602260045260246000fd5b50919050565b601f8211156110ce57600081815260208120601f850160051c810160208610156110ab5750805b601f850160051c820191505b818110156110ca578281556001016110b7565b5050505b505050565b815167ffffffffffffffff8111156110ed576110ed611034565b611101816110fb845461104a565b84611084565b602080601f831160018114611136576000841561111e5750858301515b600019600386901b1c1916600185901b1785556110ca565b600085815260208120601f198616915b8281101561116557888601518255948401946001909101908401611146565b50858210156111835787850151600019600388901b60f8161c191681555b5050505050600190811b01905550565b6000600182016111b357634e487b7160e01b600052601160045260246000fd5b5060010190565b67ffffffffffffffff8311156111d2576111d2611034565b6111e6836111e0835461104a565b83611084565b6000601f84116001811461121a57600085156112025750838201355b600019600387901b1c1916600186901b178355611274565b600083815260209020601f19861690835b8281101561124b578685013582556020948501946001909201910161122b565b50868210156112685760001960f88860031b161c19848701351681555b505060018560011b0183555b5050505050565b634e487b7160e01b600052601260045260246000fd5b6000826112a0576112a061127b565b500690565b6000826112b4576112b461127b565b50049056fea26469706673582212202fe86306e6ba41a7f115e54d8f8b530ae5cd1acd928a65ddd6651553ec4b5ac464736f6c63430008140033",
  "linkReferences": {},
  "deployedLinkReferences": {}
}