{"project/contracts/MerkleCredentialVerifier.sol":{"CredentialVerifier":{"abi":[{"inputs":[],"stateMutability":"nonpayable","type":"constructor"},{"anonymous":false,"inputs":[{"indexed":true,"internalType":"string","name":"batchId","type":"string"},{"indexed":false,"internalType":"bytes32","name":"merkleRoot","type":"bytes32"},{"indexed":false,"internalType":"uint256","name":"credentialCount","type":"uint256"},{"indexed":false,"internalType":"uint256","name":"committedAt","type":"uint256"}],"name":"BatchCommitted","type":"event"},{"anonymous":false,"inputs":[{"indexed":true,"internalType":"bytes32","name":"credentialHash","type":"bytes32"},{"indexed":true,"internalType":"string","name":"batchId","type":"string"},{"indexed":false,"internalType":"uint256","name":"revokedAt","type":"uint256"}],"name":"CredentialRevoked","type":"event"},{"inputs":[{"internalType":"string","name":"batchId","type":"string"},{"internalType":"bytes32","name":"merkleRoot","type":"bytes32"},{"internalType":"uint256","name":"credentialCount","type":"uint256"},{"internalType":"string[]","name":"studentDids","type":"string[]"},{"internalType":"uint256[]","name":"leafIndices","type":"uint256[]"},{"internalType":"string[]","name":"ipfsCids","type":"string[]"}],"name":"commitBatch","outputs":[],"stateMutability":"nonpayable","type":"function"},{"inputs":[{"internalType":"string","name":"batchId","type":"string"}],"name":"getBatch","outputs":[{"internalType":"bytes32","name":"merkleRoot","type":"bytes32"},{"internalType":"uint256","name":"credentialCount","type":"uint256"},{"internalType":"uint256","name":"committedAt","type":"uint256"},{"internalType":"bool","name":"isRevoked","type":"bool"},{"internalType":"bool","name":"exists","type":"bool"}],"stateMutability":"view","type":"function"},{"inputs":[{"internalType":"string","name":"studentDid","type":"string"}],"name":"getStudentCredentials","outputs":[{"internalType":"string[]","name":"batchIds","type":"string[]"},{"internalType":"uint256[]","name":"leafIndices","type":"uint256[]"},{"internalType":"string[]","name":"ipfsCids","type":"string[]"}],"stateMutability":"view","type":"function"},{"inputs":[{"internalType":"bytes32","name":"credentialHash","type":"bytes32"}],"name":"isCredentialRevoked","outputs":[{"internalType":"bool","name":"","type":"bool"}],"stateMutability":"view","type":"function"},{"inputs":[{"internalType":"bytes32","name":"credentialHash","type":"bytes32"},{"internalType":"string","name":"batchId","type":"string"}],"name":"revokeCredential","outputs":[],"stateMutability":"nonpayable","type":"function"},{"inputs":[],"name":"university","outputs":[{"internalType":"address","name":"","type":"address"}],"stateMutability":"view","type":"function"},{"inputs":[{"internalType":"string","name":"batchId","type":"string"},{"internalType":"bytes32","name":"credentialHash","type":"bytes32"},{"internalType":"bytes32[]","name":"proof","type":"bytes32[]"},{"internalType":"uint256","name":"leafIndex","type":"uint256"}],"name":"verifyCredential","outputs":[{"internalType":"bool","name":"isValid","type":"bool"},{"internalType":"bool","name":"isRevoked","type":"bool"},{"internalType":"uint256","name":"committedAt","type":"uint256"}],"stateMutability":"view","type":"function"}],"evm":{"bytecode":{"linkReferences":{},"object":"608060405234801561000f575f80fd5b50335f806101000a81548173ffffffffffffffffffffffffffffffffffffffff021916908373ffffffffffffffffffffffffffffffffffffffff160217905550611efe8061005c5f395ff3fe608060405234801561000f575f80fd5b506004361061007a575f3560e01c80637519322b116100595780637519322b146100e6578063ae12894e14610118578063bfbdad2714610136578063f9ca4274146101685761007a565b8062cf86681461007e5780634560b99b146100ae578063493814b5146100ca575b5f80fd5b61009860048036038101906100939190610d9a565b61019c565b6040516100a59190610ddf565b60405180910390f35b6100c860048036038101906100c39190610f36565b6101c2565b005b6100e460048036038101906100df9190611040565b610674565b005b61010060048036038101906100fb919061109d565b61086e565b60405161010f939291906112e4565b60405180910390f35b610120610b7f565b60405161012d919061136d565b60405180910390f35b610150600480360381019061014b91906113db565b610ba2565b60405161015f9392919061148d565b60405180910390f35b610182600480360381019061017d919061109d565b610cf1565b6040516101939594939291906114d1565b60405180910390f35b5f60045f8381526020019081526020015f205f9054906101000a900460ff169050919050565b5f8054906101000a900473ffffffffffffffffffffffffffffffffffffffff1673ffffffffffffffffffffffffffffffffffffffff163373ffffffffffffffffffffffffffffffffffffffff161461024f576040517f08c379a00000000000000000000000000000000000000000000000000000000081526004016102469061157c565b60405180910390fd5b60018a8a6040516102619291906115d6565b908152602001604051809103902060030160019054906101000a900460ff16156102c0576040517f08c379a00000000000000000000000000000000000000000000000000000000081526004016102b790611638565b60405180910390fd5b868686905014610305576040517f08c379a00000000000000000000000000000000000000000000000000000000081526004016102fc906116a0565b60405180910390fd5b86848490501461034a576040517f08c379a000000000000000000000000000000000000000000000000000000000815260040161034190611708565b60405180910390fd5b86828290501461038f576040517f08c379a000000000000000000000000000000000000000000000000000000000815260040161038690611770565b60405180910390fd5b5f87116103d1576040517f08c379a00000000000000000000000000000000000000000000000000000000081526004016103c8906117d8565b60405180910390fd5b6040518060a001604052808981526020018881526020014281526020015f151581526020016001151581525060018b8b60405161040f9291906115d6565b90815260200160405180910390205f820151815f015560208201518160010155604082015181600201556060820151816003015f6101000a81548160ff02191690831515021790555060808201518160030160016101000a81548160ff0219169083151502179055509050505f5b8781101561061457600287878381811061049a576104996117f6565b5b90506020028101906104ac919061182f565b6040516104ba9291906115d6565b908152602001604051809103902060405180606001604052808d8d8080601f0160208091040260200160405190810160405280939291908181526020018383808284375f81840152601f19601f82011690508083019250505050505050815260200187878581811061052f5761052e6117f6565b5b90506020020135815260200185858581811061054e5761054d6117f6565b5b9050602002810190610560919061182f565b8080601f0160208091040260200160405190810160405280939291908181526020018383808284375f81840152601f19601f82011690508083019250505050505050815250908060018154018082558091505060019003905f5260205f2090600302015f909190919091505f820151815f0190816105de9190611ab8565b506020820151816001015560408201518160020190816105fe9190611ab8565b505050808061060c90611bb4565b91505061047d565b5089896040516106259291906115d6565b60405180910390207f09fe1944793ed6b79cf24c4bf20cbaee398190b2b0966f37d72753ce4221a80e89894260405161066093929190611bfb565b60405180910390a250505050505050505050565b5f8054906101000a900473ffffffffffffffffffffffffffffffffffffffff1673ffffffffffffffffffffffffffffffffffffffff163373ffffffffffffffffffffffffffffffffffffffff1614610701576040517f08c379a00000000000000000000000000000000000000000000000000000000081526004016106f89061157c565b60405180910390fd5b600182826040516107139291906115d6565b908152602001604051809103902060030160019054906101000a900460ff16610771576040517f08c379a000000000000000000000000000000000000000000000000000000000815260040161076890611c7a565b60405180910390fd5b60045f8481526020019081526020015f205f9054906101000a900460ff16156107cf576040517f08c379a00000000000000000000000000000000000000000000000000000000081526004016107c690611ce2565b60405180910390fd5b600160045f8581526020019081526020015f205f6101000a81548160ff021916908315150217905550818160035f8681526020019081526020015f209182610818929190611d0a565b5081816040516108299291906115d6565b6040518091039020837fc33ff9944a652db4ef83cbd6e3ba64d7a75fc0860e2322e66a587a6810948746426040516108619190611dd7565b60405180910390a3505050565b60608060605f600286866040516108869291906115d6565b908152602001604051809103902090505f818054905090508067ffffffffffffffff8111156108b8576108b7611891565b5b6040519080825280602002602001820160405280156108eb57816020015b60608152602001906001900390816108d65790505b5094508067ffffffffffffffff81111561090857610907611891565b5b6040519080825280602002602001820160405280156109365781602001602082028036833780820191505090505b5093508067ffffffffffffffff81111561095357610952611891565b5b60405190808252806020026020018201604052801561098657816020015b60608152602001906001900390816109715790505b5092505f5b81811015610b75578281815481106109a6576109a56117f6565b5b905f5260205f2090600302015f0180546109bf906118eb565b80601f01602080910402602001604051908101604052809291908181526020018280546109eb906118eb565b8015610a365780601f10610a0d57610100808354040283529160200191610a36565b820191905f5260205f20905b815481529060010190602001808311610a1957829003601f168201915b5050505050868281518110610a4e57610a4d6117f6565b5b6020026020010181905250828181548110610a6c57610a6b6117f6565b5b905f5260205f20906003020160010154858281518110610a8f57610a8e6117f6565b5b602002602001018181525050828181548110610aae57610aad6117f6565b5b905f5260205f2090600302016002018054610ac8906118eb565b80601f0160208091040260200160405190810160405280929190818152602001828054610af4906118eb565b8015610b3f5780601f10610b1657610100808354040283529160200191610b3f565b820191905f5260205f20905b815481529060010190602001808311610b2257829003601f168201915b5050505050848281518110610b5757610b566117f6565b5b60200260200101819052508080610b6d90611bb4565b91505061098b565b5050509250925092565b5f8054906101000a900473ffffffffffffffffffffffffffffffffffffffff1681565b5f805f8060018a8a604051610bb89291906115d6565b908152602001604051809103902090508060030160019054906101000a900460ff16610bed575f805f93509350935050610ce5565b60045f8981526020019081526020015f205f9054906101000a900460ff169250806002015491505f8890505f8690505f5b89899050811015610cd8575f8a8a83818110610c3d57610c3c6117f6565b5b9050602002013590505f600284610c549190611e1d565b03610c89578381604051602001610c6c929190611e6d565b604051602081830303815290604052805190602001209350610cb5565b8084604051602001610c9c929190611e6d565b6040516020818303038152906040528051906020012093505b600283610cc29190611e98565b9250508080610cd090611bb4565b915050610c1e565b50825f0154821495505050505b96509650969350505050565b5f805f805f8060018888604051610d099291906115d6565b90815260200160405180910390209050805f015481600101548260020154836003015f9054906101000a900460ff168460030160019054906101000a900460ff1695509550955095509550509295509295909350565b5f80fd5b5f80fd5b5f819050919050565b610d7981610d67565b8114610d83575f80fd5b50565b5f81359050610d9481610d70565b92915050565b5f60208284031215610daf57610dae610d5f565b5b5f610dbc84828501610d86565b91505092915050565b5f8115159050919050565b610dd981610dc5565b82525050565b5f602082019050610df25f830184610dd0565b92915050565b5f80fd5b5f80fd5b5f80fd5b5f8083601f840112610e1957610e18610df8565b5b8235905067ffffffffffffffff811115610e3657610e35610dfc565b5b602083019150836001820283011115610e5257610e51610e00565b5b9250929050565b5f819050919050565b610e6b81610e59565b8114610e75575f80fd5b50565b5f81359050610e8681610e62565b92915050565b5f8083601f840112610ea157610ea0610df8565b5b8235905067ffffffffffffffff811115610ebe57610ebd610dfc565b5b602083019150836020820283011115610eda57610ed9610e00565b5b9250929050565b5f8083601f840112610ef657610ef5610df8565b5b8235905067ffffffffffffffff811115610f1357610f12610dfc565b5b602083019150836020820283011115610f2f57610f2e610e00565b5b9250929050565b5f805f805f805f805f8060c08b8d031215610f5457610f53610d5f565b5b5f8b013567ffffffffffffffff811115610f7157610f70610d63565b5b610f7d8d828e01610e04565b9a509a50506020610f908d828e01610d86565b9850506040610fa18d828e01610e78565b97505060608b013567ffffffffffffffff811115610fc257610fc1610d63565b5b610fce8d828e01610e8c565b965096505060808b013567ffffffffffffffff811115610ff157610ff0610d63565b5b610ffd8d828e01610ee1565b945094505060a08b013567ffffffffffffffff8111156110205761101f610d63565b5b61102c8d828e01610e8c565b92509250509295989b9194979a5092959850565b5f805f6040848603121561105757611056610d5f565b5b5f61106486828701610d86565b935050602084013567ffffffffffffffff81111561108557611084610d63565b5b61109186828701610e04565b92509250509250925092565b5f80602083850312156110b3576110b2610d5f565b5b5f83013567ffffffffffffffff8111156110d0576110cf610d63565b5b6110dc85828601610e04565b92509250509250929050565b5f81519050919050565b5f82825260208201905092915050565b5f819050602082019050919050565b5f81519050919050565b5f82825260208201905092915050565b5f5b8381101561114857808201518184015260208101905061112d565b5f8484015250505050565b5f601f19601f8301169050919050565b5f61116d82611111565b611177818561111b565b935061118781856020860161112b565b61119081611153565b840191505092915050565b5f6111a68383611163565b905092915050565b5f602082019050919050565b5f6111c4826110e8565b6111ce81856110f2565b9350836020820285016111e085611102565b805f5b8581101561121b57848403895281516111fc858261119b565b9450611207836111ae565b925060208a019950506001810190506111e3565b50829750879550505050505092915050565b5f81519050919050565b5f82825260208201905092915050565b5f819050602082019050919050565b61125f81610e59565b82525050565b5f6112708383611256565b60208301905092915050565b5f602082019050919050565b5f6112928261122d565b61129c8185611237565b93506112a783611247565b805f5b838110156112d75781516112be8882611265565b97506112c98361127c565b9250506001810190506112aa565b5085935050505092915050565b5f6060820190508181035f8301526112fc81866111ba565b905081810360208301526113108185611288565b9050818103604083015261132481846111ba565b9050949350505050565b5f73ffffffffffffffffffffffffffffffffffffffff82169050919050565b5f6113578261132e565b9050919050565b6113678161134d565b82525050565b5f6020820190506113805f83018461135e565b92915050565b5f8083601f84011261139b5761139a610df8565b5b8235905067ffffffffffffffff8111156113b8576113b7610dfc565b5b6020830191508360208202830111156113d4576113d3610e00565b5b9250929050565b5f805f805f80608087890312156113f5576113f4610d5f565b5b5f87013567ffffffffffffffff81111561141257611411610d63565b5b61141e89828a01610e04565b9650965050602061143189828a01610d86565b945050604087013567ffffffffffffffff81111561145257611451610d63565b5b61145e89828a01611386565b9350935050606061147189828a01610e78565b9150509295509295509295565b61148781610e59565b82525050565b5f6060820190506114a05f830186610dd0565b6114ad6020830185610dd0565b6114ba604083018461147e565b949350505050565b6114cb81610d67565b82525050565b5f60a0820190506114e45f8301886114c2565b6114f1602083018761147e565b6114fe604083018661147e565b61150b6060830185610dd0565b6115186080830184610dd0565b9695505050505050565b5f82825260208201905092915050565b7f4f6e6c7920756e69766572736974792063616e2063616c6c20746869730000005f82015250565b5f611566601d83611522565b915061157182611532565b602082019050919050565b5f6020820190508181035f8301526115938161155a565b9050919050565b5f81905092915050565b828183375f83830152505050565b5f6115bd838561159a565b93506115ca8385846115a4565b82840190509392505050565b5f6115e28284866115b2565b91508190509392505050565b7f426174636820616c726561647920636f6d6d69747465640000000000000000005f82015250565b5f611622601783611522565b915061162d826115ee565b602082019050919050565b5f6020820190508181035f83015261164f81611616565b9050919050565b7f73747564656e7444696473206c656e677468206d69736d6174636800000000005f82015250565b5f61168a601b83611522565b915061169582611656565b602082019050919050565b5f6020820190508181035f8301526116b78161167e565b9050919050565b7f6c656166496e6469636573206c656e677468206d69736d6174636800000000005f82015250565b5f6116f2601b83611522565b91506116fd826116be565b602082019050919050565b5f6020820190508181035f83015261171f816116e6565b9050919050565b7f6970667343696473206c656e677468206d69736d6174636800000000000000005f82015250565b5f61175a601883611522565b915061176582611726565b602082019050919050565b5f6020820190508181035f8301526117878161174e565b9050919050565b7f456d7074792062617463680000000000000000000000000000000000000000005f82015250565b5f6117c2600b83611522565b91506117cd8261178e565b602082019050919050565b5f6020820190508181035f8301526117ef816117b6565b9050919050565b7f4e487b71000000000000000000000000000000000000000000000000000000005f52603260045260245ffd5b5f80fd5b5f80fd5b5f80fd5b5f808335600160200384360303811261184b5761184a611823565b5b80840192508235915067ffffffffffffffff82111561186d5761186c611827565b5b6020830192506001820236038313156118895761188861182b565b5b509250929050565b7f4e487b71000000000000000000000000000000000000000000000000000000005f52604160045260245ffd5b7f4e487b71000000000000000000000000000000000000000000000000000000005f52602260045260245ffd5b5f600282049050600182168061190257607f821691505b602082108103611915576119146118be565b5b50919050565b5f819050815f5260205f209050919050565b5f6020601f8301049050919050565b5f82821b905092915050565b5f600883026119777fffffffffffffffffffffffffffffffffffffffffffffffffffffffffffffffff8261193c565b611981868361193c565b95508019841693508086168417925050509392505050565b5f819050919050565b5f6119bc6119b76119b284610e59565b611999565b610e59565b9050919050565b5f819050919050565b6119d5836119a2565b6119e96119e1826119c3565b848454611948565b825550505050565b5f90565b6119fd6119f1565b611a088184846119cc565b505050565b5b81811015611a2b57611a205f826119f5565b600181019050611a0e565b5050565b601f821115611a7057611a418161191b565b611a4a8461192d565b81016020851015611a59578190505b611a6d611a658561192d565b830182611a0d565b50505b505050565b5f82821c905092915050565b5f611a905f1984600802611a75565b1980831691505092915050565b5f611aa88383611a81565b9150826002028217905092915050565b611ac182611111565b67ffffffffffffffff811115611ada57611ad9611891565b5b611ae482546118eb565b611aef828285611a2f565b5f60209050601f831160018114611b20575f8415611b0e578287015190505b611b188582611a9d565b865550611b7f565b601f198416611b2e8661191b565b5f5b82811015611b5557848901518255600182019150602085019450602081019050611b30565b86831015611b725784890151611b6e601f891682611a81565b8355505b6001600288020188555050505b505050505050565b7f4e487b71000000000000000000000000000000000000000000000000000000005f52601160045260245ffd5b5f611bbe82610e59565b91507fffffffffffffffffffffffffffffffffffffffffffffffffffffffffffffffff8203611bf057611bef611b87565b5b600182019050919050565b5f606082019050611c0e5f8301866114c2565b611c1b602083018561147e565b611c28604083018461147e565b949350505050565b7f4261746368206e6f7420666f756e6400000000000000000000000000000000005f82015250565b5f611c64600f83611522565b9150611c6f82611c30565b602082019050919050565b5f6020820190508181035f830152611c9181611c58565b9050919050565b7f416c7265616479207265766f6b656400000000000000000000000000000000005f82015250565b5f611ccc600f83611522565b9150611cd782611c98565b602082019050919050565b5f6020820190508181035f830152611cf981611cc0565b9050919050565b5f82905092915050565b611d148383611d00565b67ffffffffffffffff811115611d2d57611d2c611891565b5b611d3782546118eb565b611d42828285611a2f565b5f601f831160018114611d6f575f8415611d5d578287013590505b611d678582611a9d565b865550611dce565b601f198416611d7d8661191b565b5f5b82811015611da457848901358255600182019150602085019450602081019050611d7f565b86831015611dc15784890135611dbd601f891682611a81565b8355505b6001600288020188555050505b50505050505050565b5f602082019050611dea5f83018461147e565b92915050565b7f4e487b71000000000000000000000000000000000000000000000000000000005f52601260045260245ffd5b5f611e2782610e59565b9150611e3283610e59565b925082611e4257611e41611df0565b5b828206905092915050565b5f819050919050565b611e67611e6282610d67565b611e4d565b82525050565b5f611e788285611e56565b602082019150611e888284611e56565b6020820191508190509392505050565b5f611ea282610e59565b9150611ead83610e59565b925082611ebd57611ebc611df0565b5b82820490509291505056fea26469706673582212203ed9375e83d40304e9949759959d791df6f7ce6ea9b4528ad130668a16f7f5c364736f6c63430008140033","opcodes":"PUSH1 0x80 PUSH1 0x40 MSTORE CALLVALUE DUP1 ISZERO PUSH2 0xF JUMPI PUSH0 DUP1 REVERT JUMPDEST POP CALLER PUSH0 DUP1 PUSH2 0x100 EXP DUP2 SLOAD DUP2 PUSH20 0xFFFFFFFFFFFFFFFFFFFFFFFFFFFFFFFFFFFFFFFF MUL NOT AND SWAP1 DUP4 PUSH20 0xFFFFFFFFFFFFFFFFFFFFFFFFFFFFFFFFFFFFFFFF AND MUL OR SWAP1 SSTORE POP PUSH2 0x1EFE DUP1 PUSH2 0x5C PUSH0 CODECOPY PUSH0 RETURN INVALID PUSH1 0x80 PUSH1 0x40 MSTORE CALLVALUE DUP1 ISZERO PUSH2 0xF JUMPI PUSH0 DUP1 REVERT JUMPDEST POP PUSH1 0x4 CALLDATASIZE LT PUSH2 0x7A JUMPI PUSH0 CALLDATALOAD PUSH1 0xE0 SHR DUP1 PUSH4 0x7519322B GT PUSH2 0x59 JUMPI DUP1 PUSH4 0x7519322B EQ PUSH2 0xE6 JUMPI DUP1 PUSH4 0xAE12894E EQ PUSH2 0x118 JUMPI DUP1 PUSH4 0xBFBDAD27 EQ PUSH2 0x136 JUMPI DUP1 PUSH4 0xF9CA4274 EQ PUSH2 0x168 JUMPI PUSH2 0x7A JUMP JUMPDEST DUP1 PUSH3 0xCF8668 EQ PUSH2 0x7E JUMPI DUP1 PUSH4 0x4560B99B EQ PUSH2 0xAE JUMPI DUP1 PUSH4 0x493814B5 EQ PUSH2 0xCA JUMPI JUMPDEST PUSH0 DUP1 REVERT JUMPDEST PUSH2 0x98 PUSH1 0x4 DUP1 CALLDATASIZE SUB DUP2 ADD SWAP1 PUSH2 0x93 SWAP2 SWAP1 PUSH2 0xD9A JUMP JUMPDEST PUSH2 0x19C JUMP JUMPDEST PUSH1 0x40 MLOAD PUSH2 0xA5 SWAP2 SWAP1 PUSH2 0xDDF JUMP JUMPDEST PUSH1 0x40 MLOAD DUP1 SWAP2 SUB SWAP1 RETURN JUMPDEST PUSH2 0xC8 PUSH1 0x4 DUP1 CALLDATASIZE SUB DUP2 ADD SWAP1 PUSH2 0xC3 SWAP2 SWAP1 PUSH2 0xF36 JUMP JUMPDEST PUSH2 0x1C2 JUMP JUMPDEST STOP JUMPDEST PUSH2 0xE4 PUSH1 0x4 DUP1 CALLDATASIZE SUB DUP2 ADD SWAP1 PUSH2 0xDF SWAP2 SWAP1 PUSH2 0x1040 JUMP JUMPDEST PUSH2 0x674 JUMP JUMPDEST STOP JUMPDEST PUSH2 0x100 PUSH1 0x4 DUP1 CALLDATASIZE SUB DUP2 ADD SWAP1 PUSH2 0xFB SWAP2 SWAP1 PUSH2 0x109D JUMP JUMPDEST PUSH2 0x86E JUMP JUMPDEST PUSH1 0x40 MLOAD PUSH2 0x10F SWAP4 SWAP3 SWAP2 SWAP1 PUSH2 0x12E4 JUMP JUMPDEST PUSH1 0x40 MLOAD DUP1 SWAP2 SUB SWAP1 RETURN JUMPDEST PUSH2 0x120 PUSH2 0xB7F JUMP JUMPDEST PUSH1 0x40 MLOAD PUSH2 0x12D SWAP2 SWAP1 PUSH2 0x136D JUMP JUMPDEST PUSH1 0x40 MLOAD DUP1 SWAP2 SUB SWAP1 RETURN JUMPDEST PUSH2 0x150 PUSH1 0x4 DUP1 CALLDATASIZE SUB DUP2 ADD SWAP1 PUSH2 0x14B SWAP2 SWAP1 PUSH2 0x13DB JUMP JUMPDEST PUSH2 0xBA2 JUMP JUMPDEST PUSH1 0x40 MLOAD PUSH2 0x15F SWAP4 SWAP3 SWAP2 SWAP1 PUSH2 0x148D JUMP JUMPDEST PUSH1 0x40 MLOAD DUP1 SWAP2 SUB SWAP1 RETURN JUMPDEST PUSH2 0x182 PUSH1 0x4 DUP1 CALLDATASIZE SUB DUP2 ADD SWAP1 PUSH2 0x17D SWAP2 SWAP1 PUSH2 0x109D JUMP JUMPDEST PUSH2 0xCF1 JUMP JUMPDEST PUSH1 0x40 MLOAD PUSH2 0x193 SWAP6 SWAP5 SWAP4 SWAP3 SWAP2 SWAP1 PUSH2 0x14D1 JUMP JUMPDEST PUSH1 0x40 MLOAD DUP1 SWAP2 SUB SWAP1 RETURN JUMPDEST PUSH0 PUSH1 0x4 PUSH0 DUP4 DUP2 MSTORE PUSH1 0x20 ADD SWAP1 DUP2 MSTORE PUSH1 0x20 ADD PUSH0 KECCAK256 PUSH0 SWAP1 SLOAD SWAP1 PUSH2 0x100 EXP SWAP1 DIV PUSH1 0xFF AND SWAP1 POP SWAP2 SWAP1 POP JUMP JUMPDEST PUSH0 DUP1 SLOAD SWAP1 PUSH2 0x100 EXP SWAP1 DIV PUSH20 0xFFFFFFFFFFFFFFFFFFFFFFFFFFFFFFFFFFFFFFFF AND PUSH20 0xFFFFFFFFFFFFFFFFFFFFFFFFFFFFFFFFFFFFFFFF AND CALLER PUSH20 0xFFFFFFFFFFFFFFFFFFFFFFFFFFFFFFFFFFFFFFFF AND EQ PUSH2 0x24F JUMPI PUSH1 0x40 MLOAD PUSH32 0x8C379A000000000000000000000000000000000000000000000000000000000 DUP2 MSTORE PUSH1 0x4 ADD PUSH2 0x246 SWAP1 PUSH2 0x157C JUMP JUMPDEST PUSH1 0x40 MLOAD DUP1 SWAP2 SUB SWAP1 REVERT JUMPDEST PUSH1 0x1 DUP11 DUP11 PUSH1 0x40 MLOAD PUSH2 0x261 SWAP3 SWAP2 SWAP1 PUSH2 0x15D6 JUMP JUMPDEST SWAP1 DUP2 MSTORE PUSH1 0x20 ADD PUSH1 0x40 MLOAD DUP1 SWAP2 SUB SWAP1 KECCAK256 PUSH1 0x3 ADD PUSH1 0x1 SWAP1 SLOAD SWAP1 PUSH2 0x100 EXP SWAP1 DIV PUSH1 0xFF AND ISZERO PUSH2 0x2C0 JUMPI PUSH1 0x40 MLOAD PUSH32 0x8C379A000000000000000000000000000000000000000000000000000000000 DUP2 MSTORE PUSH1 0x4 ADD PUSH2 0x2B7 SWAP1 PUSH2 0x1638 JUMP JUMPDEST PUSH1 0x40 MLOAD DUP1 SWAP2 SUB SWAP1 REVERT JUMPDEST DUP7 DUP7 DUP7 SWAP1 POP EQ PUSH2 0x305 JUMPI PUSH1 0x40 MLOAD PUSH32 0x8C379A000000000000000000000000000000000000000000000000000000000 DUP2 MSTORE PUSH1 0x4 ADD PUSH2 0x2FC SWAP1 PUSH2 0x16A0 JUMP JUMPDEST PUSH1 0x40 MLOAD DUP1 SWAP2 SUB SWAP1 REVERT JUMPDEST DUP7 DUP5 DUP5 SWAP1 POP EQ PUSH2 0x34A JUMPI PUSH1 0x40 MLOAD PUSH32 0x8C379A000000000000000000000000000000000000000000000000000000000 DUP2 MSTORE PUSH1 0x4 ADD PUSH2 0x341 SWAP1 PUSH2 0x1708 JUMP JUMPDEST PUSH1 0x40 MLOAD DUP1 SWAP2 SUB SWAP1 REVERT JUMPDEST DUP7 DUP3 DUP3 SWAP1 POP EQ PUSH2 0x38F JUMPI PUSH1 0x40 MLOAD PUSH32 0x8C379A000000000000000000000000000000000000000000000000000000000 DUP2 MSTORE PUSH1 0x4 ADD PUSH2 0x386 SWAP1 PUSH2 0x1770 JUMP JUMPDEST PUSH1 0x40 MLOAD DUP1 SWAP2 SUB SWAP1 REVERT JUMPDEST PUSH0 DUP8 GT PUSH2 0x3D1 JUMPI PUSH1 0x40 MLOAD PUSH32 0x8C379A000000000000000000000000000000000000000000000000000000000 DUP2 MSTORE PUSH1 0x4 ADD PUSH2 0x3C8 SWAP1 PUSH2 0x17D8 JUMP JUMPDEST PUSH1 0x40 MLOAD DUP1 SWAP2 SUB SWAP1 REVERT JUMPDEST PUSH1 0x40 MLOAD DUP1 PUSH1 0xA0 ADD PUSH1 0x40 MSTORE DUP1 DUP10 DUP2 MSTORE PUSH1 0x20 ADD DUP9 DUP2 MSTORE PUSH1 0x20 ADD TIMESTAMP DUP2 MSTORE PUSH1 0x20 ADD PUSH0 ISZERO ISZERO DUP2 MSTORE PUSH1 0x20 ADD PUSH1 0x1 ISZERO ISZERO DUP2 MSTORE POP PUSH1 0x1 DUP12 DUP12 PUSH1 0x40 MLOAD PUSH2 0x40F SWAP3 SWAP2 SWAP1 PUSH2 0x15D6 JUMP JUMPDEST SWAP1 DUP2 MSTORE PUSH1 0x20 ADD PUSH1 0x40 MLOAD DUP1 SWAP2 SUB SWAP1 KECCAK256 PUSH0 DUP3 ADD MLOAD DUP2 PUSH0 ADD SSTORE PUSH1 0x20 DUP3 ADD MLOAD DUP2 PUSH1 0x1 ADD SSTORE PUSH1 0x40 DUP3 ADD MLOAD DUP2 PUSH1 0x2 ADD SSTORE PUSH1 0x60 DUP3 ADD MLOAD DUP2 PUSH1 0x3 ADD PUSH0 PUSH2 0x100 EXP DUP2 SLOAD DUP2 PUSH1 0xFF MUL NOT AND SWAP1 DUP4 ISZERO ISZERO MUL OR SWAP1 SSTORE POP PUSH1 0x80 DUP3 ADD MLOAD DUP2 PUSH1 0x3 ADD PUSH1 0x1 PUSH2 0x100 EXP DUP2 SLOAD DUP2 PUSH1 0xFF MUL NOT AND SWAP1 DUP4 ISZERO ISZERO MUL OR SWAP1 SSTORE POP SWAP1 POP POP PUSH0 JUMPDEST DUP8 DUP2 LT ISZERO PUSH2 0x614 JUMPI PUSH1 0x2 DUP8 DUP8 DUP4 DUP2 DUP2 LT PUSH2 0x49A JUMPI PUSH2 0x499 PUSH2 0x17F6 JUMP JUMPDEST JUMPDEST SWAP1 POP PUSH1 0x20 MUL DUP2 ADD SWAP1 PUSH2 0x4AC SWAP2 SWAP1 PUSH2 0x182F JUMP JUMPDEST PUSH1 0x40 MLOAD PUSH2 0x4BA SWAP3 SWAP2 SWAP1 PUSH2 0x15D6 JUMP JUMPDEST SWAP1 DUP2 MSTORE PUSH1 0x20 ADD PUSH1 0x40 MLOAD DUP1 SWAP2 SUB SWAP1 KECCAK256 PUSH1 0x40 MLOAD DUP1 PUSH1 0x60 ADD PUSH1 0x40 MSTORE DUP1 DUP14 DUP14 DUP1 DUP1 PUSH1 0x1F ADD PUSH1 0x20 DUP1 SWAP2 DIV MUL PUSH1 0x20 ADD PUSH1 0x40 MLOAD SWAP1 DUP2 ADD PUSH1 0x40 MSTORE DUP1 SWAP4 SWAP3 SWAP2 SWAP1 DUP2 DUP2 MSTORE PUSH1 0x20 ADD DUP4 DUP4 DUP1 DUP3 DUP5 CALLDATACOPY PUSH0 DUP2 DUP5 ADD MSTORE PUSH1 0x1F NOT PUSH1 0x1F DUP3 ADD AND SWAP1 POP DUP1 DUP4 ADD SWAP3 POP POP POP POP POP POP POP DUP2 MSTORE PUSH1 0x20 ADD DUP8 DUP8 DUP6 DUP2 DUP2 LT PUSH2 0x52F JUMPI PUSH2 0x52E PUSH2 0x17F6 JUMP JUMPDEST JUMPDEST SWAP1 POP PUSH1 0x20 MUL ADD CALLDATALOAD DUP2 MSTORE PUSH1 0x20 ADD DUP6 DUP6 DUP6 DUP2 DUP2 LT PUSH2 0x54E JUMPI PUSH2 0x54D PUSH2 0x17F6 JUMP JUMPDEST JUMPDEST SWAP1 POP PUSH1 0x20 MUL DUP2 ADD SWAP1 PUSH2 0x560 SWAP2 SWAP1 PUSH2 0x182F JUMP JUMPDEST DUP1 DUP1 PUSH1 0x1F ADD PUSH1 0x20 DUP1 SWAP2 DIV MUL PUSH1 0x20 ADD PUSH1 0x40 MLOAD SWAP1 DUP2 ADD PUSH1 0x40 MSTORE DUP1 SWAP4 SWAP3 SWAP2 SWAP1 DUP2 DUP2 MSTORE PUSH1 0x20 ADD DUP4 DUP4 DUP1 DUP3 DUP5 CALLDATACOPY PUSH0 DUP2 DUP5 ADD MSTORE PUSH1 0x1F NOT PUSH1 0x1F DUP3 ADD AND SWAP1 POP DUP1 DUP4 ADD SWAP3 POP POP POP POP POP POP POP DUP2 MSTORE POP SWAP1 DUP1 PUSH1 0x1 DUP2 SLOAD ADD DUP1 DUP3 SSTORE DUP1 SWAP2 POP POP PUSH1 0x1 SWAP1 SUB SWAP1 PUSH0 MSTORE PUSH1 0x20 PUSH0 KECCAK256 SWAP1 PUSH1 0x3 MUL ADD PUSH0 SWAP1 SWAP2 SWAP1 SWAP2 SWAP1 SWAP2 POP PUSH0 DUP3 ADD MLOAD DUP2 PUSH0 ADD SWAP1 DUP2 PUSH2 0x5DE SWAP2 SWAP1 PUSH2 0x1AB8 JUMP JUMPDEST POP PUSH1 0x20 DUP3 ADD MLOAD DUP2 PUSH1 0x1 ADD SSTORE PUSH1 0x40 DUP3 ADD MLOAD DUP2 PUSH1 0x2 ADD SWAP1 DUP2 PUSH2 0x5FE SWAP2 SWAP1 PUSH2 0x1AB8 JUMP JUMPDEST POP POP POP DUP1 DUP1 PUSH2 0x60C SWAP1 PUSH2 0x1BB4 JUMP JUMPDEST SWAP2 POP POP PUSH2 0x47D JUMP JUMPDEST POP DUP10 DUP10 PUSH1 0x40 MLOAD PUSH2 0x625 SWAP3 SWAP2 SWAP1 PUSH2 0x15D6 JUMP JUMPDEST PUSH1 0x40 MLOAD DUP1 SWAP2 SUB SWAP1 KECCAK256 PUSH32 0x9FE1944793ED6B79CF24C4BF20CBAEE398190B2B0966F37D72753CE4221A80E DUP10 DUP10 TIMESTAMP PUSH1 0x40 MLOAD PUSH2 0x660 SWAP4 SWAP3 SWAP2 SWAP1 PUSH2 0x1BFB JUMP JUMPDEST PUSH1 0x40 MLOAD DUP1 SWAP2 SUB SWAP1 LOG2 POP POP POP POP POP POP POP POP POP POP JUMP JUMPDEST PUSH0 DUP1 SLOAD SWAP1 PUSH2 0x100 EXP SWAP1 DIV PUSH20 0xFFFFFFFFFFFFFFFFFFFFFFFFFFFFFFFFFFFFFFFF AND PUSH20 0xFFFFFFFFFFFFFFFFFFFFFFFFFFFFFFFFFFFFFFFF AND CALLER PUSH20 0xFFFFFFFFFFFFFFFFFFFFFFFFFFFFFFFFFFFFFFFF AND EQ PUSH2 0x701 JUMPI PUSH1 0x40 MLOAD PUSH32 0x8C379A000000000000000000000000000000000000000000000000000000000 DUP2 MSTORE PUSH1 0x4 ADD PUSH2 0x6F8 SWAP1 PUSH2 0x157C JUMP JUMPDEST PUSH1 0x40 MLOAD DUP1 SWAP2 SUB SWAP1 REVERT JUMPDEST PUSH1 0x1 DUP3 DUP3 PUSH1 0x40 MLOAD PUSH2 0x713 SWAP3 SWAP2 SWAP1 PUSH2 0x15D6 JUMP JUMPDEST SWAP1 DUP2 MSTORE PUSH1 0x20 ADD PUSH1 0x40 MLOAD DUP1 SWAP2 SUB SWAP1 KECCAK256 PUSH1 0x3 ADD PUSH1 0x1 SWAP1 SLOAD SWAP1 PUSH2 0x100 EXP SWAP1 DIV PUSH1 0xFF AND PUSH2 0x771 JUMPI PUSH1 0x40 MLOAD PUSH32 0x8C379A000000000000000000000000000000000000000000000000000000000 DUP2 MSTORE PUSH1 0x4 ADD PUSH2 0x768 SWAP1 PUSH2 0x1C7A JUMP JUMPDEST PUSH1 0x40 MLOAD DUP1 SWAP2 SUB SWAP1 REVERT JUMPDEST PUSH1 0x4 PUSH0 DUP5 DUP2 MSTORE PUSH1 0x20 ADD SWAP1 DUP2 MSTORE PUSH1 0x20 ADD PUSH0 KECCAK256 PUSH0 SWAP1 SLOAD SWAP1 PUSH2 0x100 EXP SWAP1 DIV PUSH1 0xFF AND ISZERO PUSH2 0x7CF JUMPI PUSH1 0x40 MLOAD PUSH32 0x8C379A000000000000000000000000000000000000000000000000000000000 DUP2 MSTORE PUSH1 0x4 ADD PUSH2 0x7C6 SWAP1 PUSH2 0x1CE2 JUMP JUMPDEST PUSH1 0x40 MLOAD DUP1 SWAP2 SUB SWAP1 REVERT JUMPDEST PUSH1 0x1 PUSH1 0x4 PUSH0 DUP6 DUP2 MSTORE PUSH1 0x20 ADD SWAP1 DUP2 MSTORE PUSH1 0x20 ADD PUSH0 KECCAK256 PUSH0 PUSH2 0x100 EXP DUP2 SLOAD DUP2 PUSH1 0xFF MUL NOT AND SWAP1 DUP4 ISZERO ISZERO MUL OR SWAP1 SSTORE POP DUP2 DUP2 PUSH1 0x3 PUSH0 DUP7 DUP2 MSTORE PUSH1 0x20 ADD SWAP1 DUP2 MSTORE PUSH1 0x20 ADD PUSH0 KECCAK256 SWAP2 DUP3 PUSH2 0x818 SWAP3 SWAP2 SWAP1 PUSH2 0x1D0A JUMP JUMPDEST POP DUP2 DUP2 PUSH1 0x40 MLOAD PUSH2 0x829 SWAP3 SWAP2 SWAP1 PUSH2 0x15D6 JUMP JUMPDEST PUSH1 0x40 MLOAD DUP1 SWAP2 SUB SWAP1 KECCAK256 DUP4 PUSH32 0xC33FF9944A652DB4EF83CBD6E3BA64D7A75FC0860E2322E66A587A6810948746 TIMESTAMP PUSH1 0x40 MLOAD PUSH2 0x861 SWAP2 SWAP1 PUSH2 0x1DD7 JUMP JUMPDEST PUSH1 0x40 MLOAD DUP1 SWAP2 SUB SWAP1 LOG3 POP POP POP JUMP JUMPDEST PUSH1 0x60 DUP1 PUSH1 0x60 PUSH0 PUSH1 0x2 DUP7 DUP7 PUSH1 0x40 MLOAD PUSH2 0x886 SWAP3 SWAP2 SWAP1 PUSH2 0x15D6 JUMP JUMPDEST SWAP1 DUP2 MSTORE PUSH1 0x20 ADD PUSH1 0x40 MLOAD DUP1 SWAP2 SUB SWAP1 KECCAK256 SWAP1 POP PUSH0 DUP2 DUP1 SLOAD SWAP1 POP SWAP1 POP DUP1 PUSH8 0xFFFFFFFFFFFFFFFF DUP2 GT ISZERO PUSH2 0x8B8 JUMPI PUSH2 0x8B7 PUSH2 0x1891 JUMP JUMPDEST JUMPDEST PUSH1 0x40 MLOAD SWAP1 DUP1 DUP3 MSTORE DUP1 PUSH1 0x20 MUL PUSH1 0x20 ADD DUP3 ADD PUSH1 0x40 MSTORE DUP1 ISZERO PUSH2 0x8EB JUMPI DUP2 PUSH1 0x20 ADD JUMPDEST PUSH1 0x60 DUP2 MSTORE PUSH1 0x20 ADD SWAP1 PUSH1 0x1 SWAP1 SUB SWAP1 DUP2 PUSH2 0x8D6 JUMPI SWAP1 POP JUMPDEST POP SWAP5 POP DUP1 PUSH8 0xFFFFFFFFFFFFFFFF DUP2 GT ISZERO PUSH2 0x908 JUMPI PUSH2 0x907 PUSH2 0x1891 JUMP JUMPDEST JUMPDEST PUSH1 0x40 MLOAD SWAP1 DUP1 DUP3 MSTORE DUP1 PUSH1 0x20 MUL PUSH1 0x20 ADD DUP3 ADD PUSH1 0x40 MSTORE DUP1 ISZERO PUSH2 0x936 JUMPI DUP2 PUSH1 0x20 ADD PUSH1 0x20 DUP3 MUL DUP1 CALLDATASIZE DUP4 CALLDATACOPY DUP1 DUP3 ADD SWAP2 POP POP SWAP1 POP JUMPDEST POP SWAP4 POP DUP1 PUSH8 0xFFFFFFFFFFFFFFFF DUP2 GT ISZERO PUSH2 0x953 JUMPI PUSH2 0x952 PUSH2 0x1891 JUMP JUMPDEST JUMPDEST PUSH1 0x40 MLOAD SWAP1 DUP1 DUP3 MSTORE DUP1 PUSH1 0x20 MUL PUSH1 0x20 ADD DUP3 ADD PUSH1 0x40 MSTORE DUP1 ISZERO PUSH2 0x986 JUMPI DUP2 PUSH1 0x20 ADD JUMPDEST PUSH1 0x60 DUP2 MSTORE PUSH1 0x20 ADD SWAP1 PUSH1 0x1 SWAP1 SUB SWAP1 DUP2 PUSH2 0x971 JUMPI SWAP1 POP JUMPDEST POP SWAP3 POP PUSH0 JUMPDEST DUP2 DUP2 LT ISZERO PUSH2 0xB75 JUMPI DUP3 DUP2 DUP2 SLOAD DUP2 LT PUSH2 0x9A6 JUMPI PUSH2 0x9A5 PUSH2 0x17F6 JUMP JUMPDEST JUMPDEST SWAP1 PUSH0 MSTORE PUSH1 0x20 PUSH0 KECCAK256 SWAP1 PUSH1 0x3 MUL ADD PUSH0 ADD DUP1 SLOAD PUSH2 0x9BF SWAP1 PUSH2 0x18EB JUMP JUMPDEST DUP1 PUSH1 0x1F ADD PUSH1 0x20 DUP1 SWAP2 DIV MUL PUSH1 0x20 ADD PUSH1 0x40 MLOAD SWAP1 DUP2 ADD PUSH1 0x40 MSTORE DUP1 SWAP3 SWAP2 SWAP1 DUP2 DUP2 MSTORE PUSH1 0x20 ADD DUP3 DUP1 SLOAD PUSH2 0x9EB SWAP1 PUSH2 0x18EB JUMP JUMPDEST DUP1 ISZERO PUSH2 0xA36 JUMPI DUP1 PUSH1 0x1F LT PUSH2 0xA0D JUMPI PUSH2 0x100 DUP1 DUP4 SLOAD DIV MUL DUP4 MSTORE SWAP2 PUSH1 0x20 ADD SWAP2 PUSH2 0xA36 JUMP JUMPDEST DUP3 ADD SWAP2 SWAP1 PUSH0 MSTORE PUSH1 0x20 PUSH0 KECCAK256 SWAP1 JUMPDEST DUP2 SLOAD DUP2 MSTORE SWAP1 PUSH1 0x1 ADD SWAP1 PUSH1 0x20 ADD DUP1 DUP4 GT PUSH2 0xA19 JUMPI DUP3 SWAP1 SUB PUSH1 0x1F AND DUP3 ADD SWAP2 JUMPDEST POP POP POP POP POP DUP7 DUP3 DUP2 MLOAD DUP2 LT PUSH2 0xA4E JUMPI PUSH2 0xA4D PUSH2 0x17F6 JUMP JUMPDEST JUMPDEST PUSH1 0x20 MUL PUSH1 0x20 ADD ADD DUP2 SWAP1 MSTORE POP DUP3 DUP2 DUP2 SLOAD DUP2 LT PUSH2 0xA6C JUMPI PUSH2 0xA6B PUSH2 0x17F6 JUMP JUMPDEST JUMPDEST SWAP1 PUSH0 MSTORE PUSH1 0x20 PUSH0 KECCAK256 SWAP1 PUSH1 0x3 MUL ADD PUSH1 0x1 ADD SLOAD DUP6 DUP3 DUP2 MLOAD DUP2 LT PUSH2 0xA8F JUMPI PUSH2 0xA8E PUSH2 0x17F6 JUMP JUMPDEST JUMPDEST PUSH1 0x20 MUL PUSH1 0x20 ADD ADD DUP2 DUP2 MSTORE POP POP DUP3 DUP2 DUP2 SLOAD DUP2 LT PUSH2 0xAAE JUMPI PUSH2 0xAAD PUSH2 0x17F6 JUMP JUMPDEST JUMPDEST SWAP1 PUSH0 MSTORE PUSH1 0x20 PUSH0 KECCAK256 SWAP1 PUSH1 0x3 MUL ADD PUSH1 0x2 ADD DUP1 SLOAD PUSH2 0xAC8 SWAP1 PUSH2 0x18EB JUMP JUMPDEST DUP1 PUSH1 0x1F ADD PUSH1 0x20 DUP1 SWAP2 DIV MUL PUSH1 0x20 ADD PUSH1 0x40 MLOAD SWAP1 DUP2 ADD PUSH1 0x40 MSTORE DUP1 SWAP3 SWAP2 SWAP1 DUP2 DUP2 MSTORE PUSH1 0x20 ADD DUP3 DUP1 SLOAD PUSH2 0xAF4 SWAP1 PUSH2 0x18EB JUMP JUMPDEST DUP1 ISZERO PUSH2 0xB3F JUMPI DUP1 PUSH1 0x1F LT PUSH2 0xB16 JUMPI PUSH2 0x100 DUP1 DUP4 SLOAD DIV MUL DUP4 MSTORE SWAP2 PUSH1 0x20 ADD SWAP2 PUSH2 0xB3F JUMP JUMPDEST DUP3 ADD SWAP2 SWAP1 PUSH0 MSTORE PUSH1 0x20 PUSH0 KECCAK256 SWAP1 JUMPDEST DUP2 SLOAD DUP2 MSTORE SWAP1 PUSH1 0x1 ADD SWAP1 PUSH1 0x20 ADD DUP1 DUP4 GT PUSH2 0xB22 JUMPI DUP3 SWAP1 SUB PUSH1 0x1F AND DUP3 ADD SWAP2 JUMPDEST POP POP POP POP POP DUP5 DUP3 DUP2 MLOAD DUP2 LT PUSH2 0xB57 JUMPI PUSH2 0xB56 PUSH2 0x17F6 JUMP JUMPDEST JUMPDEST PUSH1 0x20 MUL PUSH1 0x20 ADD ADD DUP2 SWAP1 MSTORE POP DUP1 DUP1 PUSH2 0xB6D SWAP1 PUSH2 0x1BB4 JUMP JUMPDEST SWAP2 POP POP PUSH2 0x98B JUMP JUMPDEST POP POP POP SWAP3 POP SWAP3 POP SWAP3 JUMP JUMPDEST PUSH0 DUP1 SLOAD SWAP1 PUSH2 0x100 EXP SWAP1 DIV PUSH20 0xFFFFFFFFFFFFFFFFFFFFFFFFFFFFFFFFFFFFFFFF AND DUP2 JUMP JUMPDEST PUSH0 DUP1 PUSH0 DUP1 PUSH1 0x1 DUP11 DUP11 PUSH1 0x40 MLOAD PUSH2 0xBB8 SWAP3 SWAP2 SWAP1 PUSH2 0x15D6 JUMP JUMPDEST SWAP1 DUP2 MSTORE PUSH1 0x20 ADD PUSH1 0x40 MLOAD DUP1 SWAP2 SUB SWAP1 KECCAK256 SWAP1 POP DUP1 PUSH1 0x3 ADD PUSH1 0x1 SWAP1 SLOAD SWAP1 PUSH2 0x100 EXP SWAP1 DIV PUSH1 0xFF AND PUSH2 0xBED JUMPI PUSH0 DUP1 PUSH0 SWAP4 POP SWAP4 POP SWAP4 POP POP PUSH2 0xCE5 JUMP JUMPDEST PUSH1 0x4 PUSH0 DUP10 DUP2 MSTORE PUSH1 0x20 ADD SWAP1 DUP2 MSTORE PUSH1 0x20 ADD PUSH0 KECCAK256 PUSH0 SWAP1 SLOAD SWAP1 PUSH2 0x100 EXP SWAP1 DIV PUSH1 0xFF AND SWAP3 POP DUP1 PUSH1 0x2 ADD SLOAD SWAP2 POP PUSH0 DUP9 SWAP1 POP PUSH0 DUP7 SWAP1 POP PUSH0 JUMPDEST DUP10 DUP10 SWAP1 POP DUP2 LT ISZERO PUSH2 0xCD8 JUMPI PUSH0 DUP11 DUP11 DUP4 DUP2 DUP2 LT PUSH2 0xC3D JUMPI PUSH2 0xC3C PUSH2 0x17F6 JUMP JUMPDEST JUMPDEST SWAP1 POP PUSH1 0x20 MUL ADD CALLDATALOAD SWAP1 POP PUSH0 PUSH1 0x2 DUP5 PUSH2 0xC54 SWAP2 SWAP1 PUSH2 0x1E1D JUMP JUMPDEST SUB PUSH2 0xC89 JUMPI DUP4 DUP2 PUSH1 0x40 MLOAD PUSH1 0x20 ADD PUSH2 0xC6C SWAP3 SWAP2 SWAP1 PUSH2 0x1E6D JUMP JUMPDEST PUSH1 0x40 MLOAD PUSH1 0x20 DUP2 DUP4 SUB SUB DUP2 MSTORE SWAP1 PUSH1 0x40 MSTORE DUP1 MLOAD SWAP1 PUSH1 0x20 ADD KECCAK256 SWAP4 POP PUSH2 0xCB5 JUMP JUMPDEST DUP1 DUP5 PUSH1 0x40 MLOAD PUSH1 0x20 ADD PUSH2 0xC9C SWAP3 SWAP2 SWAP1 PUSH2 0x1E6D JUMP JUMPDEST PUSH1 0x40 MLOAD PUSH1 0x20 DUP2 DUP4 SUB SUB DUP2 MSTORE SWAP1 PUSH1 0x40 MSTORE DUP1 MLOAD SWAP1 PUSH1 0x20 ADD KECCAK256 SWAP4 POP JUMPDEST PUSH1 0x2 DUP4 PUSH2 0xCC2 SWAP2 SWAP1 PUSH2 0x1E98 JUMP JUMPDEST SWAP3 POP POP DUP1 DUP1 PUSH2 0xCD0 SWAP1 PUSH2 0x1BB4 JUMP JUMPDEST SWAP2 POP POP PUSH2 0xC1E JUMP JUMPDEST POP DUP3 PUSH0 ADD SLOAD DUP3 EQ SWAP6 POP POP POP POP JUMPDEST SWAP7 POP SWAP7 POP SWAP7 SWAP4 POP POP POP POP JUMP JUMPDEST PUSH0 DUP1 PUSH0 DUP1 PUSH0 DUP1 PUSH1 0x1 DUP9 DUP9 PUSH1 0x40 MLOAD PUSH2 0xD09 SWAP3 SWAP2 SWAP1 PUSH2 0x15D6 JUMP JUMPDEST SWAP1 DUP2 MSTORE PUSH1 0x20 ADD PUSH1 0x40 MLOAD DUP1 SWAP2 SUB SWAP1 KECCAK256 SWAP1 POP DUP1 PUSH0 ADD SLOAD DUP2 PUSH1 0x1 ADD SLOAD DUP3 PUSH1 0x2 ADD SLOAD DUP4 PUSH1 0x3 ADD PUSH0 SWAP1 SLOAD SWAP1 PUSH2 0x100 EXP SWAP1 DIV PUSH1 0xFF AND DUP5 PUSH1 0x3 ADD PUSH1 0x1 SWAP1 SLOAD SWAP1 PUSH2 0x100 EXP SWAP1 DIV PUSH1 0xFF AND SWAP6 POP SWAP6 POP SWAP6 POP SWAP6 POP SWAP6 POP POP SWAP3 SWAP6 POP SWAP3 SWAP6 SWAP1 SWAP4 POP JUMP JUMPDEST PUSH0 DUP1 REVERT JUMPDEST PUSH0 DUP1 REVERT JUMPDEST PUSH0 DUP2 SWAP1 POP SWAP2 SWAP1 POP JUMP JUMPDEST PUSH2 0xD79 DUP2 PUSH2 0xD67 JUMP JUMPDEST DUP2 EQ PUSH2 0xD83 JUMPI PUSH0 DUP1 REVERT JUMPDEST POP JUMP JUMPDEST PUSH0 DUP2 CALLDATALOAD SWAP1 POP PUSH2 0xD94 DUP2 PUSH2 0xD70 JUMP JUMPDEST SWAP3 SWAP2 POP POP JUMP JUMPDEST PUSH0 PUSH1 0x20 DUP3 DUP5 SUB SLT ISZERO PUSH2 0xDAF JUMPI PUSH2 0xDAE PUSH2 0xD5F JUMP JUMPDEST JUMPDEST PUSH0 PUSH2 0xDBC DUP5 DUP3 DUP6 ADD PUSH2 0xD86 JUMP JUMPDEST SWAP2 POP POP SWAP3 SWAP2 POP POP JUMP JUMPDEST PUSH0 DUP2 ISZERO ISZERO SWAP1 POP SWAP2 SWAP1 POP JUMP JUMPDEST PUSH2 0xDD9 DUP2 PUSH2 0xDC5 JUMP JUMPDEST DUP3 MSTORE POP POP JUMP JUMPDEST PUSH0 PUSH1 0x20 DUP3 ADD SWAP1 POP PUSH2 0xDF2 PUSH0 DUP4 ADD DUP5 PUSH2 0xDD0 JUMP JUMPDEST SWAP3 SWAP2 POP POP JUMP JUMPDEST PUSH0 DUP1 REVERT JUMPDEST PUSH0 DUP1 REVERT JUMPDEST PUSH0 DUP1 REVERT JUMPDEST PUSH0 DUP1 DUP4 PUSH1 0x1F DUP5 ADD SLT PUSH2 0xE19 JUMPI PUSH2 0xE18 PUSH2 0xDF8 JUMP JUMPDEST JUMPDEST DUP3 CALLDATALOAD SWAP1 POP PUSH8 0xFFFFFFFFFFFFFFFF DUP2 GT ISZERO PUSH2 0xE36 JUMPI PUSH2 0xE35 PUSH2 0xDFC JUMP JUMPDEST JUMPDEST PUSH1 0x20 DUP4 ADD SWAP2 POP DUP4 PUSH1 0x1 DUP3 MUL DUP4 ADD GT ISZERO PUSH2 0xE52 JUMPI PUSH2 0xE51 PUSH2 0xE00 JUMP JUMPDEST JUMPDEST SWAP3 POP SWAP3 SWAP1 POP JUMP JUMPDEST PUSH0 DUP2 SWAP1 POP SWAP2 SWAP1 POP JUMP JUMPDEST PUSH2 0xE6B DUP2 PUSH2 0xE59 JUMP JUMPDEST DUP2 EQ PUSH2 0xE75 JUMPI PUSH0 DUP1 REVERT JUMPDEST POP JUMP JUMPDEST PUSH0 DUP2 CALLDATALOAD SWAP1 POP PUSH2 0xE86 DUP2 PUSH2 0xE62 JUMP JUMPDEST SWAP3 SWAP2 POP POP JUMP JUMPDEST PUSH0 DUP1 DUP4 PUSH1 0x1F DUP5 ADD SLT PUSH2 0xEA1 JUMPI PUSH2 0xEA0 PUSH2 0xDF8 JUMP JUMPDEST JUMPDEST DUP3 CALLDATALOAD SWAP1 POP PUSH8 0xFFFFFFFFFFFFFFFF DUP2 GT ISZERO PUSH2 0xEBE JUMPI PUSH2 0xEBD PUSH2 0xDFC JUMP JUMPDEST JUMPDEST PUSH1 0x20 DUP4 ADD SWAP2 POP DUP4 PUSH1 0x20 DUP3 MUL DUP4 ADD GT ISZERO PUSH2 0xEDA JUMPI PUSH2 0xED9 PUSH2 0xE00 JUMP JUMPDEST JUMPDEST SWAP3 POP SWAP3 SWAP1 POP JUMP JUMPDEST PUSH0 DUP1 DUP4 PUSH1 0x1F DUP5 ADD SLT PUSH2 0xEF6 JUMPI PUSH2 0xEF5 PUSH2 0xDF8 JUMP JUMPDEST JUMPDEST DUP3 CALLDATALOAD SWAP1 POP PUSH8 0xFFFFFFFFFFFFFFFF DUP2 GT ISZERO PUSH2 0xF13 JUMPI PUSH2 0xF12 PUSH2 0xDFC JUMP JUMPDEST JUMPDEST PUSH1 0x20 DUP4 ADD SWAP2 POP DUP4 PUSH1 0x20 DUP3 MUL DUP4 ADD GT ISZERO PUSH2 0xF2F JUMPI PUSH2 0xF2E PUSH2 0xE00 JUMP JUMPDEST JUMPDEST SWAP3 POP SWAP3 SWAP1 POP JUMP JUMPDEST PUSH0 DUP1 PUSH0 DUP1 PUSH0 DUP1 PUSH0 DUP1 PUSH0 DUP1 PUSH1 0xC0 DUP12 DUP14 SUB SLT ISZERO PUSH2 0xF54 JUMPI PUSH2 0xF53 PUSH2 0xD5F JUMP JUMPDEST JUMPDEST PUSH0 DUP12 ADD CALLDATALOAD PUSH8 0xFFFFFFFFFFFFFFFF DUP2 GT ISZERO PUSH2 0xF71 JUMPI PUSH2 0xF70 PUSH2 0xD63 JUMP JUMPDEST JUMPDEST PUSH2 0xF7D DUP14 DUP3 DUP15 ADD PUSH2 0xE04 JUMP JUMPDEST SWAP11 POP SWAP11 POP POP PUSH1 0x20 PUSH2 0xF90 DUP14 DUP3 DUP15 ADD PUSH2 0xD86 JUMP JUMPDEST SWAP9 POP POP PUSH1 0x40 PUSH2 0xFA1 DUP14 DUP3 DUP15 ADD PUSH2 0xE78 JUMP JUMPDEST SWAP8 POP POP PUSH1 0x60 DUP12 ADD CALLDATALOAD PUSH8 0xFFFFFFFFFFFFFFFF DUP2 GT ISZERO PUSH2 0xFC2 JUMPI PUSH2 0xFC1 PUSH2 0xD63 JUMP JUMPDEST JUMPDEST PUSH2 0xFCE DUP14 DUP3 DUP15 ADD PUSH2 0xE8C JUMP JUMPDEST SWAP7 POP SWAP7 POP POP PUSH1 0x80 DUP12 ADD CALLDATALOAD PUSH8 0xFFFFFFFFFFFFFFFF DUP2 GT ISZERO PUSH2 0xFF1 JUMPI PUSH2 0xFF0 PUSH2 0xD63 JUMP JUMPDEST JUMPDEST PUSH2 0xFFD DUP14 DUP3 DUP15 ADD PUSH2 0xEE1 JUMP JUMPDEST SWAP5 POP SWAP5 POP POP PUSH1 0xA0 DUP12 ADD CALLDATALOAD PUSH8 0xFFFFFFFFFFFFFFFF DUP2 GT ISZERO PUSH2 0x1020 JUMPI PUSH2 0x101F PUSH2 0xD63 JUMP JUMPDEST JUMPDEST PUSH2 0x102C DUP14 DUP3 DUP15 ADD PUSH2 0xE8C JUMP JUMPDEST SWAP3 POP SWAP3 POP POP SWAP3 SWAP6 SWAP9 SWAP12 SWAP2 SWAP5 SWAP8 SWAP11 POP SWAP3 SWAP6 SWAP9 POP JUMP JUMPDEST PUSH0 DUP1 PUSH0 PUSH1 0x40 DUP5 DUP7 SUB SLT ISZERO PUSH2 0x1057 JUMPI PUSH2 0x1056 PUSH2 0xD5F JUMP JUMPDEST JUMPDEST PUSH0 PUSH2 0x1064 DUP7 DUP3 DUP8 ADD PUSH2 0xD86 JUMP JUMPDEST SWAP4 POP POP PUSH1 0x20 DUP5 ADD CALLDATALOAD PUSH8 0xFFFFFFFFFFFFFFFF DUP2 GT ISZERO PUSH2 0x1085 JUMPI PUSH2 0x1084 PUSH2 0xD63 JUMP JUMPDEST JUMPDEST PUSH2 0x1091 DUP7 DUP3 DUP8 ADD PUSH2 0xE04 JUMP JUMPDEST SWAP3 POP SWAP3 POP POP SWAP3 POP SWAP3 POP SWAP3 JUMP JUMPDEST PUSH0 DUP1 PUSH1 0x20 DUP4 DUP6 SUB SLT ISZERO PUSH2 0x10B3 JUMPI PUSH2 0x10B2 PUSH2 0xD5F JUMP JUMPDEST JUMPDEST PUSH0 DUP4 ADD CALLDATALOAD PUSH8 0xFFFFFFFFFFFFFFFF DUP2 GT ISZERO PUSH2 0x10D0 JUMPI PUSH2 0x10CF PUSH2 0xD63 JUMP JUMPDEST JUMPDEST PUSH2 0x10DC DUP6 DUP3 DUP7 ADD PUSH2 0xE04 JUMP JUMPDEST SWAP3 POP SWAP3 POP POP SWAP3 POP SWAP3 SWAP1 POP JUMP JUMPDEST PUSH0 DUP2 MLOAD SWAP1 POP SWAP2 SWAP1 POP JUMP JUMPDEST PUSH0 DUP3 DUP3 MSTORE PUSH1 0x20 DUP3 ADD SWAP1 POP SWAP3 SWAP2 POP POP JUMP JUMPDEST PUSH0 DUP2 SWAP1 POP PUSH1 0x20 DUP3 ADD SWAP1 POP SWAP2 SWAP1 POP JUMP JUMPDEST PUSH0 DUP2 MLOAD SWAP1 POP SWAP2 SWAP1 POP JUMP JUMPDEST PUSH0 DUP3 DUP3 MSTORE PUSH1 0x20 DUP3 ADD SWAP1 POP SWAP3 SWAP2 POP POP JUMP JUMPDEST PUSH0 JUMPDEST DUP4 DUP2 LT ISZERO PUSH2 0x1148 JUMPI DUP1 DUP3 ADD MLOAD DUP2 DUP5 ADD MSTORE PUSH1 0x20 DUP2 ADD SWAP1 POP PUSH2 0x112D JUMP JUMPDEST PUSH0 DUP5 DUP5 ADD MSTORE POP POP POP POP JUMP JUMPDEST PUSH0 PUSH1 0x1F NOT PUSH1 0x1F DUP4 ADD AND SWAP1 POP SWAP2 SWAP1 POP JUMP JUMPDEST PUSH0 PUSH2 0x116D DUP3 PUSH2 0x1111 JUMP JUMPDEST PUSH2 0x1177 DUP2 DUP6 PUSH2 0x111B JUMP JUMPDEST SWAP4 POP PUSH2 0x1187 DUP2 DUP6 PUSH1 0x20 DUP7 ADD PUSH2 0x112B JUMP JUMPDEST PUSH2 0x1190 DUP2 PUSH2 0x1153 JUMP JUMPDEST DUP5 ADD SWAP2 POP POP SWAP3 SWAP2 POP POP JUMP JUMPDEST PUSH0 PUSH2 0x11A6 DUP4 DUP4 PUSH2 0x1163 JUMP JUMPDEST SWAP1 POP SWAP3 SWAP2 POP POP JUMP JUMPDEST PUSH0 PUSH1 0x20 DUP3 ADD SWAP1 POP SWAP2 SWAP1 POP JUMP JUMPDEST PUSH0 PUSH2 0x11C4 DUP3 PUSH2 0x10E8 JUMP JUMPDEST PUSH2 0x11CE DUP2 DUP6 PUSH2 0x10F2 JUMP JUMPDEST SWAP4 POP DUP4 PUSH1 0x20 DUP3 MUL DUP6 ADD PUSH2 0x11E0 DUP6 PUSH2 0x1102 JUMP JUMPDEST DUP1 PUSH0 JUMPDEST DUP6 DUP2 LT ISZERO PUSH2 0x121B JUMPI DUP5 DUP5 SUB DUP10 MSTORE DUP2 MLOAD PUSH2 0x11FC DUP6 DUP3 PUSH2 0x119B JUMP JUMPDEST SWAP5 POP PUSH2 0x1207 DUP4 PUSH2 0x11AE JUMP JUMPDEST SWAP3 POP PUSH1 0x20 DUP11 ADD SWAP10 POP POP PUSH1 0x1 DUP2 ADD SWAP1 POP PUSH2 0x11E3 JUMP JUMPDEST POP DUP3 SWAP8 POP DUP8 SWAP6 POP POP POP POP POP POP SWAP3 SWAP2 POP POP JUMP JUMPDEST PUSH0 DUP2 MLOAD SWAP1 POP SWAP2 SWAP1 POP JUMP JUMPDEST PUSH0 DUP3 DUP3 MSTORE PUSH1 0x20 DUP3 ADD SWAP1 POP SWAP3 SWAP2 POP POP JUMP JUMPDEST PUSH0 DUP2 SWAP1 POP PUSH1 0x20 DUP3 ADD SWAP1 POP SWAP2 SWAP1 POP JUMP JUMPDEST PUSH2 0x125F DUP2 PUSH2 0xE59 JUMP JUMPDEST DUP3 MSTORE POP POP JUMP JUMPDEST PUSH0 PUSH2 0x1270 DUP4 DUP4 PUSH2 0x1256 JUMP JUMPDEST PUSH1 0x20 DUP4 ADD SWAP1 POP SWAP3 SWAP2 POP POP JUMP JUMPDEST PUSH0 PUSH1 0x20 DUP3 ADD SWAP1 POP SWAP2 SWAP1 POP JUMP JUMPDEST PUSH0 PUSH2 0x1292 DUP3 PUSH2 0x122D JUMP JUMPDEST PUSH2 0x129C DUP2 DUP6 PUSH2 0x1237 JUMP JUMPDEST SWAP4 POP PUSH2 0x12A7 DUP4 PUSH2 0x1247 JUMP JUMPDEST DUP1 PUSH0 JUMPDEST DUP4 DUP2 LT ISZERO PUSH2 0x12D7 JUMPI DUP2 MLOAD PUSH2 0x12BE DUP9 DUP3 PUSH2 0x1265 JUMP JUMPDEST SWAP8 POP PUSH2 0x12C9 DUP4 PUSH2 0x127C JUMP JUMPDEST SWAP3 POP POP PUSH1 0x1 DUP2 ADD SWAP1 POP PUSH2 0x12AA JUMP JUMPDEST POP DUP6 SWAP4 POP POP POP POP SWAP3 SWAP2 POP POP JUMP JUMPDEST PUSH0 PUSH1 0x60 DUP3 ADD SWAP1 POP DUP2 DUP2 SUB PUSH0 DUP4 ADD MSTORE PUSH2 0x12FC DUP2 DUP7 PUSH2 0x11BA JUMP JUMPDEST SWAP1 POP DUP2 DUP2 SUB PUSH1 0x20 DUP4 ADD MSTORE PUSH2 0x1310 DUP2 DUP6 PUSH2 0x1288 JUMP JUMPDEST SWAP1 POP DUP2 DUP2 SUB PUSH1 0x40 DUP4 ADD MSTORE PUSH2 0x1324 DUP2 DUP5 PUSH2 0x11BA JUMP JUMPDEST SWAP1 POP SWAP5 SWAP4 POP POP POP POP JUMP JUMPDEST PUSH0 PUSH20 0xFFFFFFFFFFFFFFFFFFFFFFFFFFFFFFFFFFFFFFFF DUP3 AND SWAP1 POP SWAP2 SWAP1 POP JUMP JUMPDEST PUSH0 PUSH2 0x1357 DUP3 PUSH2 0x132E JUMP JUMPDEST SWAP1 POP SWAP2 SWAP1 POP JUMP JUMPDEST PUSH2 0x1367 DUP2 PUSH2 0x134D JUMP JUMPDEST DUP3 MSTORE POP POP JUMP JUMPDEST PUSH0 PUSH1 0x20 DUP3 ADD SWAP1 POP PUSH2 0x1380 PUSH0 DUP4 ADD DUP5 PUSH2 0x135E JUMP JUMPDEST SWAP3 SWAP2 POP POP JUMP JUMPDEST PUSH0 DUP1 DUP4 PUSH1 0x1F DUP5 ADD SLT PUSH2 0x139B JUMPI PUSH2 0x139A PUSH2 0xDF8 JUMP JUMPDEST JUMPDEST DUP3 CALLDATALOAD SWAP1 POP PUSH8 0xFFFFFFFFFFFFFFFF DUP2 GT ISZERO PUSH2 0x13B8 JUMPI PUSH2 0x13B7 PUSH2 0xDFC JUMP JUMPDEST JUMPDEST PUSH1 0x20 DUP4 ADD SWAP2 POP DUP4 PUSH1 0x20 DUP3 MUL DUP4 ADD GT ISZERO PUSH2 0x13D4 JUMPI PUSH2 0x13D3 PUSH2 0xE00 JUMP JUMPDEST JUMPDEST SWAP3 POP SWAP3 SWAP1 POP JUMP JUMPDEST PUSH0 DUP1 PUSH0 DUP1 PUSH0 DUP1 PUSH1 0x80 DUP8 DUP10 SUB SLT ISZERO PUSH2 0x13F5 JUMPI PUSH2 0x13F4 PUSH2 0xD5F JUMP JUMPDEST JUMPDEST PUSH0 DUP8 ADD CALLDATALOAD PUSH8 0xFFFFFFFFFFFFFFFF DUP2 GT ISZERO PUSH2 0x1412 JUMPI PUSH2 0x1411 PUSH2 0xD63 JUMP JUMPDEST JUMPDEST PUSH2 0x141E DUP10 DUP3 DUP11 ADD PUSH2 0xE04 JUMP JUMPDEST SWAP7 POP SWAP7 POP POP PUSH1 0x20 PUSH2 0x1431 DUP10 DUP3 DUP11 ADD PUSH2 0xD86 JUMP JUMPDEST SWAP5 POP POP PUSH1 0x40 DUP8 ADD CALLDATALOAD PUSH8 0xFFFFFFFFFFFFFFFF DUP2 GT ISZERO PUSH2 0x1452 JUMPI PUSH2 0x1451 PUSH2 0xD63 JUMP JUMPDEST JUMPDEST PUSH2 0x145E DUP10 DUP3 DUP11 ADD PUSH2 0x1386 JUMP JUMPDEST SWAP4 POP SWAP4 POP POP PUSH1 0x60 PUSH2 0x1471 DUP10 DUP3 DUP11 ADD PUSH2 0xE78 JUMP JUMPDEST SWAP2 POP POP SWAP3 SWAP6 POP SWAP3 SWAP6 POP SWAP3 SWAP6 JUMP JUMPDEST PUSH2 0x1487 DUP2 PUSH2 0xE59 JUMP JUMPDEST DUP3 MSTORE POP POP JUMP JUMPDEST PUSH0 PUSH1 0x60 DUP3 ADD SWAP1 POP PUSH2 0x14A0 PUSH0 DUP4 ADD DUP7 PUSH2 0xDD0 JUMP JUMPDEST PUSH2 0x14AD PUSH1 0x20 DUP4 ADD DUP6 PUSH2 0xDD0 JUMP JUMPDEST PUSH2 0x14BA PUSH1 0x40 DUP4 ADD DUP5 PUSH2 0x147E JUMP JUMPDEST SWAP5 SWAP4 POP POP POP POP JUMP JUMPDEST PUSH2 0x14CB DUP2 PUSH2 0xD67 JUMP JUMPDEST DUP3 MSTORE POP POP JUMP JUMPDEST PUSH0 PUSH1 0xA0 DUP3 ADD SWAP1 POP PUSH2 0x14E4 PUSH0 DUP4 ADD DUP9 PUSH2 0x14C2 JUMP JUMPDEST PUSH2 0x14F1 PUSH1 0x20 DUP4 ADD DUP8 PUSH2 0x147E JUMP JUMPDEST PUSH2 0x14FE PUSH1 0x40 DUP4 ADD DUP7 PUSH2 0x147E JUMP JUMPDEST PUSH2 0x150B PUSH1 0x60 DUP4 ADD DUP6 PUSH2 0xDD0 JUMP JUMPDEST PUSH2 0x1518 PUSH1 0x80 DUP4 ADD DUP5 PUSH2 0xDD0 JUMP JUMPDEST SWAP7 SWAP6 POP POP POP POP POP POP JUMP JUMPDEST PUSH0 DUP3 DUP3 MSTORE PUSH1 0x20 DUP3 ADD SWAP1 POP SWAP3 SWAP2 POP POP JUMP JUMPDEST PUSH32 0x4F6E6C7920756E69766572736974792063616E2063616C6C2074686973000000 PUSH0 DUP3 ADD MSTORE POP JUMP JUMPDEST PUSH0 PUSH2 0x1566 PUSH1 0x1D DUP4 PUSH2 0x1522 JUMP JUMPDEST SWAP2 POP PUSH2 0x1571 DUP3 PUSH2 0x1532 JUMP JUMPDEST PUSH1 0x20 DUP3 ADD SWAP1 POP SWAP2 SWAP1 POP JUMP JUMPDEST PUSH0 PUSH1 0x20 DUP3 ADD SWAP1 POP DUP2 DUP2 SUB PUSH0 DUP4 ADD MSTORE PUSH2 0x1593 DUP2 PUSH2 0x155A JUMP JUMPDEST SWAP1 POP SWAP2 SWAP1 POP JUMP JUMPDEST PUSH0 DUP2 SWAP1 POP SWAP3 SWAP2 POP POP JUMP JUMPDEST DUP3 DUP2 DUP4 CALLDATACOPY PUSH0 DUP4 DUP4 ADD MSTORE POP POP POP JUMP JUMPDEST PUSH0 PUSH2 0x15BD DUP4 DUP6 PUSH2 0x159A JUMP JUMPDEST SWAP4 POP PUSH2 0x15CA DUP4 DUP6 DUP5 PUSH2 0x15A4 JUMP JUMPDEST DUP3 DUP5 ADD SWAP1 POP SWAP4 SWAP3 POP POP POP JUMP JUMPDEST PUSH0 PUSH2 0x15E2 DUP3 DUP5 DUP7 PUSH2 0x15B2 JUMP JUMPDEST SWAP2 POP DUP2 SWAP1 POP SWAP4 SWAP3 POP POP POP JUMP JUMPDEST PUSH32 0x426174636820616C726561647920636F6D6D6974746564000000000000000000 PUSH0 DUP3 ADD MSTORE POP JUMP JUMPDEST PUSH0 PUSH2 0x1622 PUSH1 0x17 DUP4 PUSH2 0x1522 JUMP JUMPDEST SWAP2 POP PUSH2 0x162D DUP3 PUSH2 0x15EE JUMP JUMPDEST PUSH1 0x20 DUP3 ADD SWAP1 POP SWAP2 SWAP1 POP JUMP JUMPDEST PUSH0 PUSH1 0x20 DUP3 ADD SWAP1 POP DUP2 DUP2 SUB PUSH0 DUP4 ADD MSTORE PUSH2 0x164F DUP2 PUSH2 0x1616 JUMP JUMPDEST SWAP1 POP SWAP2 SWAP1 POP JUMP JUMPDEST PUSH32 0x73747564656E7444696473206C656E677468206D69736D617463680000000000 PUSH0 DUP3 ADD MSTORE POP JUMP JUMPDEST PUSH0 PUSH2 0x168A PUSH1 0x1B DUP4 PUSH2 0x1522 JUMP JUMPDEST SWAP2 POP PUSH2 0x1695 DUP3 PUSH2 0x1656 JUMP JUMPDEST PUSH1 0x20 DUP3 ADD SWAP1 POP SWAP2 SWAP1 POP JUMP JUMPDEST PUSH0 PUSH1 0x20 DUP3 ADD SWAP1 POP DUP2 DUP2 SUB PUSH0 DUP4 ADD MSTORE PUSH2 0x16B7 DUP2 PUSH2 0x167E JUMP JUMPDEST SWAP1 POP SWAP2 SWAP1 POP JUMP JUMPDEST PUSH32 0x6C656166496E6469636573206C656E677468206D69736D617463680000000000 PUSH0 DUP3 ADD MSTORE POP JUMP JUMPDEST PUSH0 PUSH2 0x16F2 PUSH1 0x1B DUP4 PUSH2 0x1522 JUMP JUMPDEST SWAP2 POP PUSH2 0x16FD DUP3 PUSH2 0x16BE JUMP JUMPDEST PUSH1 0x20 DUP3 ADD SWAP1 POP SWAP2 SWAP1 POP JUMP JUMPDEST PUSH0 PUSH1 0x20 DUP3 ADD SWAP1 POP DUP2 DUP2 SUB PUSH0 DUP4 ADD MSTORE PUSH2 0x171F DUP2 PUSH2 0x16E6 JUMP JUMPDEST SWAP1 POP SWAP2 SWAP1 POP JUMP JUMPDEST PUSH32 0x6970667343696473206C656E677468206D69736D617463680000000000000000 PUSH0 DUP3 ADD MSTORE POP JUMP JUMPDEST PUSH0 PUSH2 0x175A PUSH1 0x18 DUP4 PUSH2 0x1522 JUMP JUMPDEST SWAP2 POP PUSH2 0x1765 DUP3 PUSH2 0x1726 JUMP JUMPDEST PUSH1 0x20 DUP3 ADD SWAP1 POP SWAP2 SWAP1 POP JUMP JUMPDEST PUSH0 PUSH1 0x20 DUP3 ADD SWAP1 POP DUP2 DUP2 SUB PUSH0 DUP4 ADD MSTORE PUSH2 0x1787 DUP2 PUSH2 0x174E JUMP JUMPDEST SWAP1 POP SWAP2 SWAP1 POP JUMP JUMPDEST PUSH32 0x456D707479206261746368000000000000000000000000000000000000000000 PUSH0 DUP3 ADD MSTORE POP JUMP JUMPDEST PUSH0 PUSH2 0x17C2 PUSH1 0xB DUP4 PUSH2 0x1522 JUMP JUMPDEST SWAP2 POP PUSH2 0x17CD DUP3 PUSH2 0x178E JUMP JUMPDEST PUSH1 0x20 DUP3 ADD SWAP1 POP SWAP2 SWAP1 POP JUMP JUMPDEST PUSH0 PUSH1 0x20 DUP3 ADD SWAP1 POP DUP2 DUP2 SUB PUSH0 DUP4 ADD MSTORE PUSH2 0x17EF DUP2 PUSH2 0x17B6 JUMP JUMPDEST SWAP1 POP SWAP2 SWAP1 POP JUMP JUMPDEST PUSH32 0x4E487B7100000000000000000000000000000000000000000000000000000000 PUSH0 MSTORE PUSH1 0x32 PUSH1 0x4 MSTORE PUSH1 0x24 PUSH0 REVERT JUMPDEST PUSH0 DUP1 REVERT JUMPDEST PUSH0 DUP1 REVERT JUMPDEST PUSH0 DUP1 REVERT JUMPDEST PUSH0 DUP1 DUP4 CALLDATALOAD PUSH1 0x1 PUSH1 0x20 SUB DUP5 CALLDATASIZE SUB SUB DUP2 SLT PUSH2 0x184B JUMPI PUSH2 0x184A PUSH2 0x1823 JUMP JUMPDEST JUMPDEST DUP1 DUP5 ADD SWAP3 POP DUP3 CALLDATALOAD SWAP2 POP PUSH8 0xFFFFFFFFFFFFFFFF DUP3 GT ISZERO PUSH2 0x186D JUMPI PUSH2 0x186C PUSH2 0x1827 JUMP JUMPDEST JUMPDEST PUSH1 0x20 DUP4 ADD SWAP3 POP PUSH1 0x1 DUP3 MUL CALLDATASIZE SUB DUP4 SGT ISZERO PUSH2 0x1889 JUMPI PUSH2 0x1888 PUSH2 0x182B JUMP JUMPDEST JUMPDEST POP SWAP3 POP SWAP3 SWAP1 POP JUMP JUMPDEST PUSH32 0x4E487B7100000000000000000000000000000000000000000000000000000000 PUSH0 MSTORE PUSH1 0x41 PUSH1 0x4 MSTORE PUSH1 0x24 PUSH0 REVERT JUMPDEST PUSH32 0x4E487B7100000000000000000000000000000000000000000000000000000000 PUSH0 MSTORE PUSH1 0x22 PUSH1 0x4 MSTORE PUSH1 0x24 PUSH0 REVERT JUMPDEST PUSH0 PUSH1 0x2 DUP3 DIV SWAP1 POP PUSH1 0x1 DUP3 AND DUP1 PUSH2 0x1902 JUMPI PUSH1 0x7F DUP3 AND SWAP2 POP JUMPDEST PUSH1 0x20 DUP3 LT DUP2 SUB PUSH2 0x1915 JUMPI PUSH2 0x1914 PUSH2 0x18BE JUMP JUMPDEST JUMPDEST POP SWAP2 SWAP1 POP JUMP JUMPDEST PUSH0 DUP2 SWAP1 POP DUP2 PUSH0 MSTORE PUSH1 0x20 PUSH0 KECCAK256 SWAP1 POP SWAP2 SWAP1 POP JUMP JUMPDEST PUSH0 PUSH1 0x20 PUSH1 0x1F DUP4 ADD DIV SWAP1 POP SWAP2 SWAP1 POP JUMP JUMPDEST PUSH0 DUP3 DUP3 SHL SWAP1 POP SWAP3 SWAP2 POP POP JUMP JUMPDEST PUSH0 PUSH1 0x8 DUP4 MUL PUSH2 0x1977 PUSH32 0xFFFFFFFFFFFFFFFFFFFFFFFFFFFFFFFFFFFFFFFFFFFFFFFFFFFFFFFFFFFFFFFF DUP3 PUSH2 0x193C JUMP JUMPDEST PUSH2 0x1981 DUP7 DUP4 PUSH2 0x193C JUMP JUMPDEST SWAP6 POP DUP1 NOT DUP5 AND SWAP4 POP DUP1 DUP7 AND DUP5 OR SWAP3 POP POP POP SWAP4 SWAP3 POP POP POP JUMP JUMPDEST PUSH0 DUP2 SWAP1 POP SWAP2 SWAP1 POP JUMP JUMPDEST PUSH0 PUSH2 0x19BC PUSH2 0x19B7 PUSH2 0x19B2 DUP5 PUSH2 0xE59 JUMP JUMPDEST PUSH2 0x1999 JUMP JUMPDEST PUSH2 0xE59 JUMP JUMPDEST SWAP1 POP SWAP2 SWAP1 POP JUMP JUMPDEST PUSH0 DUP2 SWAP1 POP SWAP2 SWAP1 POP JUMP JUMPDEST PUSH2 0x19D5 DUP4 PUSH2 0x19A2 JUMP JUMPDEST PUSH2 0x19E9 PUSH2 0x19E1 DUP3 PUSH2 0x19C3 JUMP JUMPDEST DUP5 DUP5 SLOAD PUSH2 0x1948 JUMP JUMPDEST DUP3 SSTORE POP POP POP POP JUMP JUMPDEST PUSH0 SWAP1 JUMP JUMPDEST PUSH2 0x19FD PUSH2 0x19F1 JUMP JUMPDEST PUSH2 0x1A08 DUP2 DUP5 DUP5 PUSH2 0x19CC JUMP JUMPDEST POP POP POP JUMP JUMPDEST JUMPDEST DUP2 DUP2 LT ISZERO PUSH2 0x1A2B JUMPI PUSH2 0x1A20 PUSH0 DUP3 PUSH2 0x19F5 JUMP JUMPDEST PUSH1 0x1 DUP2 ADD SWAP1 POP PUSH2 0x1A0E JUMP JUMPDEST POP POP JUMP JUMPDEST PUSH1 0x1F DUP3 GT ISZERO PUSH2 0x1A70 JUMPI PUSH2 0x1A41 DUP2 PUSH2 0x191B JUMP JUMPDEST PUSH2 0x1A4A DUP5 PUSH2 0x192D JUMP JUMPDEST DUP2 ADD PUSH1 0x20 DUP6 LT ISZERO PUSH2 0x1A59 JUMPI DUP2 SWAP1 POP JUMPDEST PUSH2 0x1A6D PUSH2 0x1A65 DUP6 PUSH2 0x192D JUMP JUMPDEST DUP4 ADD DUP3 PUSH2 0x1A0D JUMP JUMPDEST POP POP JUMPDEST POP POP POP JUMP JUMPDEST PUSH0 DUP3 DUP3 SHR SWAP1 POP SWAP3 SWAP2 POP POP JUMP JUMPDEST PUSH0 PUSH2 0x1A90 PUSH0 NOT DUP5 PUSH1 0x8 MUL PUSH2 0x1A75 JUMP JUMPDEST NOT DUP1 DUP4 AND SWAP2 POP POP SWAP3 SWAP2 POP POP JUMP JUMPDEST PUSH0 PUSH2 0x1AA8 DUP4 DUP4 PUSH2 0x1A81 JUMP JUMPDEST SWAP2 POP DUP3 PUSH1 0x2 MUL DUP3 OR SWAP1 POP SWAP3 SWAP2 POP POP JUMP JUMPDEST PUSH2 0x1AC1 DUP3 PUSH2 0x1111 JUMP JUMPDEST PUSH8 0xFFFFFFFFFFFFFFFF DUP2 GT ISZERO PUSH2 0x1ADA JUMPI PUSH2 0x1AD9 PUSH2 0x1891 JUMP JUMPDEST JUMPDEST PUSH2 0x1AE4 DUP3 SLOAD PUSH2 0x18EB JUMP JUMPDEST PUSH2 0x1AEF DUP3 DUP3 DUP6 PUSH2 0x1A2F JUMP JUMPDEST PUSH0 PUSH1 0x20 SWAP1 POP PUSH1 0x1F DUP4 GT PUSH1 0x1 DUP2 EQ PUSH2 0x1B20 JUMPI PUSH0 DUP5 ISZERO PUSH2 0x1B0E JUMPI DUP3 DUP8 ADD MLOAD SWAP1 POP JUMPDEST PUSH2 0x1B18 DUP6 DUP3 PUSH2 0x1A9D JUMP JUMPDEST DUP7 SSTORE POP PUSH2 0x1B7F JUMP JUMPDEST PUSH1 0x1F NOT DUP5 AND PUSH2 0x1B2E DUP7 PUSH2 0x191B JUMP JUMPDEST PUSH0 JUMPDEST DUP3 DUP2 LT ISZERO PUSH2 0x1B55 JUMPI DUP5 DUP10 ADD MLOAD DUP3 SSTORE PUSH1 0x1 DUP3 ADD SWAP2 POP PUSH1 0x20 DUP6 ADD SWAP5 POP PUSH1 0x20 DUP2 ADD SWAP1 POP PUSH2 0x1B30 JUMP JUMPDEST DUP7 DUP4 LT ISZERO PUSH2 0x1B72 JUMPI DUP5 DUP10 ADD MLOAD PUSH2 0x1B6E PUSH1 0x1F DUP10 AND DUP3 PUSH2 0x1A81 JUMP JUMPDEST DUP4 SSTORE POP JUMPDEST PUSH1 0x1 PUSH1 0x2 DUP9 MUL ADD DUP9 SSTORE POP POP POP JUMPDEST POP POP POP POP POP POP JUMP JUMPDEST PUSH32 0x4E487B7100000000000000000000000000000000000000000000000000000000 PUSH0 MSTORE PUSH1 0x11 PUSH1 0x4 MSTORE PUSH1 0x24 PUSH0 REVERT JUMPDEST PUSH0 PUSH2 0x1BBE DUP3 PUSH2 0xE59 JUMP JUMPDEST SWAP2 POP PUSH32 0xFFFFFFFFFFFFFFFFFFFFFFFFFFFFFFFFFFFFFFFFFFFFFFFFFFFFFFFFFFFFFFFF DUP3 SUB PUSH2 0x1BF0 JUMPI PUSH2 0x1BEF PUSH2 0x1B87 JUMP JUMPDEST JUMPDEST PUSH1 0x1 DUP3 ADD SWAP1 POP SWAP2 SWAP1 POP JUMP JUMPDEST PUSH0 PUSH1 0x60 DUP3 ADD SWAP1 POP PUSH2 0x1C0E PUSH0 DUP4 ADD DUP7 PUSH2 0x14C2 JUMP JUMPDEST PUSH2 0x1C1B PUSH1 0x20 DUP4 ADD DUP6 PUSH2 0x147E JUMP JUMPDEST PUSH2 0x1C28 PUSH1 0x40 DUP4 ADD DUP5 PUSH2 0x147E JUMP JUMPDEST SWAP5 SWAP4 POP POP POP POP JUMP JUMPDEST PUSH32 0x4261746368206E6F7420666F756E640000000000000000000000000000000000 PUSH0 DUP3 ADD MSTORE POP JUMP JUMPDEST PUSH0 PUSH2 0x1C64 PUSH1 0xF DUP4 PUSH2 0x1522 JUMP JUMPDEST SWAP2 POP PUSH2 0x1C6F DUP3 PUSH2 0x1C30 JUMP JUMPDEST PUSH1 0x20 DUP3 ADD SWAP1 POP SWAP2 SWAP1 POP JUMP JUMPDEST PUSH0 PUSH1 0x20 DUP3 ADD SWAP1 POP DUP2 DUP2 SUB PUSH0 DUP4 ADD MSTORE PUSH2 0x1C91 DUP2 PUSH2 0x1C58 JUMP JUMPDEST SWAP1 POP SWAP2 SWAP1 POP JUMP JUMPDEST PUSH32 0x416C7265616479207265766F6B65640000000000000000000000000000000000 PUSH0 DUP3 ADD MSTORE POP JUMP JUMPDEST PUSH0 PUSH2 0x1CCC PUSH1 0xF DUP4 PUSH2 0x1522 JUMP JUMPDEST SWAP2 POP PUSH2 0x1CD7 DUP3 PUSH2 0x1C98 JUMP JUMPDEST PUSH1 0x20 DUP3 ADD SWAP1 POP SWAP2 SWAP1 POP JUMP JUMPDEST PUSH0 PUSH1 0x20 DUP3 ADD SWAP1 POP DUP2 DUP2 SUB PUSH0 DUP4 ADD MSTORE PUSH2 0x1CF9 DUP2 PUSH2 0x1CC0 JUMP JUMPDEST SWAP1 POP SWAP2 SWAP1 POP JUMP JUMPDEST PUSH0 DUP3 SWAP1 POP SWAP3 SWAP2 POP POP JUMP JUMPDEST PUSH2 0x1D14 DUP4 DUP4 PUSH2 0x1D00 JUMP JUMPDEST PUSH8 0xFFFFFFFFFFFFFFFF DUP2 GT ISZERO PUSH2 0x1D2D JUMPI PUSH2 0x1D2C PUSH2 0x1891 JUMP JUMPDEST JUMPDEST PUSH2 0x1D37 DUP3 SLOAD PUSH2 0x18EB JUMP JUMPDEST PUSH2 0x1D42 DUP3 DUP3 DUP6 PUSH2 0x1A2F JUMP JUMPDEST PUSH0 PUSH1 0x1F DUP4 GT PUSH1 0x1 DUP2 EQ PUSH2 0x1D6F JUMPI PUSH0 DUP5 ISZERO PUSH2 0x1D5D JUMPI DUP3 DUP8 ADD CALLDATALOAD SWAP1 POP JUMPDEST PUSH2 0x1D67 DUP6 DUP3 PUSH2 0x1A9D JUMP JUMPDEST DUP7 SSTORE POP PUSH2 0x1DCE JUMP JUMPDEST PUSH1 0x1F NOT DUP5 AND PUSH2 0x1D7D DUP7 PUSH2 0x191B JUMP JUMPDEST PUSH0 JUMPDEST DUP3 DUP2 LT ISZERO PUSH2 0x1DA4 JUMPI DUP5 DUP10 ADD CALLDATALOAD DUP3 SSTORE PUSH1 0x1 DUP3 ADD SWAP2 POP PUSH1 0x20 DUP6 ADD SWAP5 POP PUSH1 0x20 DUP2 ADD SWAP1 POP PUSH2 0x1D7F JUMP JUMPDEST DUP7 DUP4 LT ISZERO PUSH2 0x1DC1 JUMPI DUP5 DUP10 ADD CALLDATALOAD PUSH2 0x1DBD PUSH1 0x1F DUP10 AND DUP3 PUSH2 0x1A81 JUMP JUMPDEST DUP4 SSTORE POP JUMPDEST PUSH1 0x1 PUSH1 0x2 DUP9 MUL ADD DUP9 SSTORE POP POP POP JUMPDEST POP POP POP POP POP POP POP JUMP JUMPDEST PUSH0 PUSH1 0x20 DUP3 ADD SWAP1 POP PUSH2 0x1DEA PUSH0 DUP4 ADD DUP5 PUSH2 0x147E JUMP JUMPDEST SWAP3 SWAP2 POP POP JUMP JUMPDEST PUSH32 0x4E487B7100000000000000000000000000000000000000000000000000000000 PUSH0 MSTORE PUSH1 0x12 PUSH1 0x4 MSTORE PUSH1 0x24 PUSH0 REVERT JUMPDEST PUSH0 PUSH2 0x1E27 DUP3 PUSH2 0xE59 JUMP JUMPDEST SWAP2 POP PUSH2 0x1E32 DUP4 PUSH2 0xE59 JUMP JUMPDEST SWAP3 POP DUP3 PUSH2 0x1E42 JUMPI PUSH2 0x1E41 PUSH2 0x1DF0 JUMP JUMPDEST JUMPDEST DUP3 DUP3 MOD SWAP1 POP SWAP3 SWAP2 POP POP JUMP JUMPDEST PUSH0 DUP2 SWAP1 POP SWAP2 SWAP1 POP JUMP JUMPDEST PUSH2 0x1E67 PUSH2 0x1E62 DUP3 PUSH2 0xD67 JUMP JUMPDEST PUSH2 0x1E4D JUMP JUMPDEST DUP3 MSTORE POP POP JUMP JUMPDEST PUSH0 PUSH2 0x1E78 DUP3 DUP6 PUSH2 0x1E56 JUMP JUMPDEST PUSH1 0x20 DUP3 ADD SWAP2 POP PUSH2 0x1E88 DUP3 DUP5 PUSH2 0x1E56 JUMP JUMPDEST PUSH1 0x20 DUP3 ADD SWAP2 POP DUP2 SWAP1 POP SWAP4 SWAP3 POP POP POP JUMP JUMPDEST PUSH0 PUSH2 0x1EA2 DUP3 PUSH2 0xE59 JUMP JUMPDEST SWAP2 POP PUSH2 0x1EAD DUP4 PUSH2 0xE59 JUMP JUMPDEST SWAP3 POP DUP3 PUSH2 0x1EBD JUMPI PUSH2 0x1EBC PUSH2 0x1DF0 JUMP JUMPDEST JUMPDEST DUP3 DUP3 DIV SWAP1 POP SWAP3 SWAP2 POP POP JUMP INVALID LOG2 PUSH5 0x6970667358 0x22 SLT KECCAK256 RETURNDATACOPY 0xD9 CALLDATACOPY 0x5E DUP4 0xD4 SUB DIV 0xE9 SWAP5 SWAP8 MSIZE SWAP6 SWAP14 PUSH26 0x1DF6F7CE6EA9B4528AD130668A16F7F5C364736F6C6343000814 STOP CALLER "},"methodIdentifiers":{"commitBatch(string,bytes32,uint256,string[],uint256[],string[])":"4560b99b","getBatch(string)":"f9ca4274","getStudentCredentials(string)":"7519322b","isCredentialRevoked(bytes32)":"00cf8668","revokeCredential(bytes32,string)":"493814b5","university()":"ae12894e","verifyCredential(string,bytes32,bytes32[],uint256)":"bfbdad27"}}}}}